{"contracts/ProofOfStakeValidatorManager.sol":{"ProofOfStakeValidatorManager":{"abi":[{"inputs":[{"internalType":"contract IERC20","name":"_stakingToken","type":"address"},{"internalType":"uint256","name":"_minStake","type":"uint256"},{"internalType":"uint256","name":"_lockupPeriod","type":"uint256"},{"internalType":"uint256","name":"_maxValidators","type":"uint256"}],"stateMutability":"nonpayable","type":"constructor"},{"inputs":[],"name":"AlreadyValidator","type":"error"},{"inputs":[],"name":"ExitNotRequested","type":"error"},{"inputs":[],"name":"InsufficientRewardLiquidity","type":"error"},{"inputs":[],"name":"InvalidConfiguration","type":"error"},{"inputs":[],"name":"InvalidStakeAmount","type":"error"},{"inputs":[],"name":"LockupPeriodNotElapsed","type":"error"},{"inputs":[],"name":"MaxValidatorsReached","type":"error"},{"inputs":[],"name":"NothingToClaim","type":"error"},{"inputs":[],"name":"ValidatorNotActive","type":"error"},{"inputs":[],"name":"ValidatorNotFound","type":"error"},{"inputs":[],"name":"ValidatorNotSlashable","type":"error"},{"anonymous":false,"inputs":[{"indexed":false,"internalType":"uint256","name":"newLockupPeriod","type":"uint256"}],"name":"LockupPeriodUpdated","type":"event"},{"anonymous":false,"inputs":[{"indexed":false,"internalType":"uint256","name":"newMaxValidators","type":"uint256"}],"name":"MaxValidatorsUpdated","type":"event"},{"anonymous":false,"inputs":[{"indexed":false,"internalType":"uint256","name":"newMinStake","type":"uint256"}],"name":"MinStakeUpdated","type":"event"},{"anonymous":false,"inputs":[{"indexed":true,"internalType":"address","name":"previousOwner","type":"address"},{"indexed":true,"internalType":"address","name":"newOwner","type":"address"}],"name":"OwnershipTransferred","type":"event"},{"anonymous":false,"inputs":[{"indexed":true,"internalType":"address","name":"validator","type":"address"},{"indexed":false,"internalType":"uint256","name":"amount","type":"uint256"}],"name":"RewardsAllocated","type":"event"},{"anonymous":false,"inputs":[{"indexed":true,"internalType":"address","name":"validator","type":"address"},{"indexed":false,"internalType":"uint256","name":"amount","type":"uint256"}],"name":"RewardsClaimed","type":"event"},{"anonymous":false,"inputs":[{"indexed":true,"internalType":"address","name":"funder","type":"address"},{"indexed":false,"internalType":"uint256","name":"amount","type":"uint256"}],"name":"RewardsFunded","type":"event"},{"anonymous":false,"inputs":[{"indexed":true,"internalType":"address","name":"validator","type":"address"}],"name":"ValidatorExitCancelled","type":"event"},{"anonymous":false,"inputs":[{"indexed":true,"internalType":"address","name":"validator","type":"address"},{"indexed":false,"internalType":"uint256","name":"returnedStake","type":"uint256"},{"indexed":false,"internalType":"uint256","name":"paidRewards","type":"uint256"}],"name":"ValidatorExitCompleted","type":"event"},{"anonymous":false,"inputs":[{"indexed":true,"internalType":"address","name":"validator","type":"address"},{"indexed":false,"internalType":"uint256","name":"exitAllowedAfter","type":"uint256"}],"name":"ValidatorExitRequested","type":"event"},{"anonymous":false,"inputs":[{"indexed":true,"internalType":"address","name":"validator","type":"address"},{"indexed":false,"internalType":"uint256","name":"amount","type":"uint256"},{"indexed":false,"internalType":"uint256","name":"activationTime","type":"uint256"}],"name":"ValidatorRegistered","type":"event"},{"anonymous":false,"inputs":[{"indexed":true,"internalType":"address","name":"validator","type":"address"},{"indexed":false,"internalType":"uint256","name":"penaltyAmount","type":"uint256"},{"indexed":true,"internalType":"address","name":"recipient","type":"address"}],"name":"ValidatorSlashed","type":"event"},{"anonymous":false,"inputs":[{"indexed":true,"internalType":"address","name":"validator","type":"address"},{"indexed":false,"internalType":"uint256","name":"additionalStake","type":"uint256"},{"indexed":false,"internalType":"uint256","name":"newTotalStake","type":"uint256"}],"name":"ValidatorStakeIncreased","type":"event"},{"inputs":[],"name":"activeValidatorCount","outputs":[{"internalType":"uint256","name":"","type":"uint256"}],"stateMutability":"view","type":"function"},{"inputs":[{"internalType":"address","name":"validatorAddress","type":"address"},{"internalType":"uint256","name":"amount","type":"uint256"}],"name":"allocateRewards","outputs":[],"stateMutability":"nonpayable","type":"function"},{"inputs":[],"name":"cancelExit","outputs":[],"stateMutability":"nonpayable","type":"function"},{"inputs":[],"name":"claimRewards","outputs":[],"stateMutability":"nonpayable","type":"function"},{"inputs":[],"name":"completeExit","outputs":[],"stateMutability":"nonpayable","type":"function"},{"inputs":[{"internalType":"uint256","name":"amount","type":"uint256"}],"name":"fundRewards","outputs":[],"stateMutability":"nonpayable","type":"function"},{"inputs":[{"internalType":"address","name":"validatorAddress","type":"address"}],"name":"getValidator","outputs":[{"internalType":"uint256","name":"stakedAmount","type":"uint256"},{"internalType":"uint256","name":"pendingRewards","type":"uint256"},{"internalType":"uint256","name":"activationTime","type":"uint256"},{"internalType":"uint256","name":"exitAllowedAfter","type":"uint256"},{"internalType":"enum ProofOfStakeValidatorManager.ValidatorStatus","name":"status","type":"uint8"}],"stateMutability":"view","type":"function"},{"inputs":[],"name":"getValidatorAddresses","outputs":[{"internalType":"address[]","name":"","type":"address[]"}],"stateMutability":"view","type":"function"},{"inputs":[{"internalType":"uint256","name":"amount","type":"uint256"}],"name":"increaseStake","outputs":[],"stateMutability":"nonpayable","type":"function"},{"inputs":[{"internalType":"address","name":"validatorAddress","type":"address"}],"name":"isValidatorActive","outputs":[{"internalType":"bool","name":"","type":"bool"}],"stateMutability":"view","type":"function"},{"inputs":[],"name":"lockupPeriod","outputs":[{"internalType":"uint256","name":"","type":"uint256"}],"stateMutability":"view","type":"function"},{"inputs":[],"name":"maxValidators","outputs":[{"internalType":"uint256","name":"","type":"uint256"}],"stateMutability":"view","type":"function"},{"inputs":[],"name":"minStake","outputs":[{"internalType":"uint256","name":"","type":"uint256"}],"stateMutability":"view","type":"function"},{"inputs":[],"name":"owner","outputs":[{"internalType":"address","name":"","type":"address"}],"stateMutability":"view","type":"function"},{"inputs":[{"internalType":"uint256","name":"amount","type":"uint256"}],"name":"registerValidator","outputs":[],"stateMutability":"nonpayable","type":"function"},{"inputs":[],"name":"renounceOwnership","outputs":[],"stateMutability":"nonpayable","type":"function"},{"inputs":[],"name":"requestExit","outputs":[],"stateMutability":"nonpayable","type":"function"},{"inputs":[],"name":"rewardPoolBalance","outputs":[{"internalType":"uint256","name":"","type":"uint256"}],"stateMutability":"view","type":"function"},{"inputs":[{"internalType":"uint256","name":"newLockupPeriod","type":"uint256"}],"name":"setLockupPeriod","outputs":[],"stateMutability":"nonpayable","type":"function"},{"inputs":[{"internalType":"uint256","name":"newMaxValidators","type":"uint256"}],"name":"setMaxValidators","outputs":[],"stateMutability":"nonpayable","type":"function"},{"inputs":[{"internalType":"uint256","name":"newMinStake","type":"uint256"}],"name":"setMinStake","outputs":[],"stateMutability":"nonpayable","type":"function"},{"inputs":[{"internalType":"address","name":"validatorAddress","type":"address"},{"internalType":"uint256","name":"amount","type":"uint256"},{"internalType":"address","name":"recipient","type":"address"}],"name":"slashValidator","outputs":[],"stateMutability":"nonpayable","type":"function"},{"inputs":[],"name":"stakingToken","outputs":[{"internalType":"contract IERC20","name":"","type":"address"}],"stateMutability":"view","type":"function"},{"inputs":[],"name":"totalActiveStake","outputs":[{"internalType":"uint256","name":"","type":"uint256"}],"stateMutability":"view","type":"function"},{"inputs":[],"name":"totalPendingRewards","outputs":[{"internalType":"uint256","name":"","type":"uint256"}],"stateMutability":"view","type":"function"},{"inputs":[{"internalType":"address","name":"newOwner","type":"address"}],"name":"transferOwnership","outputs":[],"stateMutability":"nonpayable","type":"function"},{"inputs":[{"internalType":"address","name":"recipient","type":"address"},{"internalType":"uint256","name":"amount","type":"uint256"}],"name":"withdrawExcessRewards","outputs":[],"stateMutability":"nonpayable","type":"function"}],"evm":{"bytecode":{"linkReferences":{},"object":"60a06040523480156200001157600080fd5b5060405162001a4938038062001a498339810160408190526200003491620000f1565b6200003f33620000a1565b600180556001600160a01b038416158062000058575082155b8062000062575080155b15620000815760405163c52a9bd360e01b815260040160405180910390fd5b6001600160a01b039093166080526002919091556003556004556200013e565b600080546001600160a01b038381166001600160a01b0319831681178455604051919092169283917f8be0079c531659141344cd1fd0a4f28419497f9722a3daafe3b4186f6b6457e09190a35050565b600080600080608085870312156200010857600080fd5b84516001600160a01b03811681146200012057600080fd5b60208601516040870151606090970151919890975090945092505050565b6080516118b762000192600039600081816102a2015281816105b6015281816107190152818161089501528181610a7501528181610c4e01528181610d3801528181610e2801526111a001526118b76000f3fe608060405234801561001057600080fd5b50600436106101a95760003560e01c80638c80fd90116100f9578063ec1371f211610097578063f2fde38b11610071578063f2fde38b14610389578063f74e921f1461039c578063fdf364e4146103b1578063fe53259a146103b957600080fd5b8063ec1371f214610364578063ee947a7c1461036d578063eedad66b1461037657600080fd5b80639bb2ea5a116100d35780639bb2ea5a14610323578063b01eb66014610336578063b75879411461033e578063c771c3901461035157600080fd5b80638c80fd90146102ec5780638da5cb5b146102ff57806393707a191461031057600080fd5b8063375b3c0a11610166578063715018a611610140578063715018a61461029557806372f702f31461029d5780637a5c08ae146102dc5780637f8e3b4e146102e457600080fd5b8063375b3c0a1461025657806342ad55ac1461025f578063679cdb061461028257600080fd5b806308ac5256146101ae5780631904bb2e146101ca5780631aa7e577146102275780632340e8d31461023c57806328f7314814610245578063372500ab1461024e575b600080fd5b6101b760045481565b6040519081526020015b60405180910390f35b6102166101d8366004611649565b6001600160a01b031660009081526008602052604090208054600182015460028301546003840154600490940154929491939092909160ff90911690565b6040516101c195949392919061167a565b61023a6102353660046116c5565b6103cc565b005b6101b760055481565b6101b760065481565b61023a610510565b6101b760025481565b61027261026d366004611649565b61061f565b60405190151581526020016101c1565b61023a6102903660046116ef565b610676565b61023a610861565b6102c47f000000000000000000000000000000000000000000000000000000000000000081565b6040516001600160a01b0390911681526020016101c1565b6101b7610873565b61023a610937565b61023a6102fa3660046116ef565b6109da565b6000546001600160a01b03166102c4565b61023a61031e3660046116ef565b610a3f565b61023a6103313660046116ef565b610adb565b61023a610b44565b61023a61034c3660046116c5565b610cbc565b61023a61035f3660046116ef565b610d6d565b6101b760075481565b6101b760035481565b61023a6103843660046116ef565b610daa565b61023a610397366004611649565b610ebd565b6103a4610f38565b6040516101c19190611708565b61023a610f9a565b61023a6103c7366004611755565b611025565b6103d4611224565b806000036103f557604051630103be3b60e21b815260040160405180910390fd5b6001600160a01b03821660009081526008602052604090206001600482015460ff16600381111561042857610428611664565b1415801561044f57506002600482015460ff16600381111561044c5761044c611664565b14155b1561046d5760405163580e542f60e01b815260040160405180910390fd5b6000610477610873565b90508281101561049a57604051630d75c42960e31b815260040160405180910390fd5b828260010160008282546104ae91906117a7565b9250508190555082600760008282546104c791906117a7565b90915550506040518381526001600160a01b038516907f560ef4f9524af91c8f006852a8707c3f256c238779f8cc088bbe202bb82e632e9060200160405180910390a250505050565b61051861127e565b3360009081526008602052604090206001600482015460ff16600381111561054257610542611664565b14610560576040516353670afb60e11b815260040160405180910390fd5b60018101546000819003610587576040516312d37ee560e31b815260040160405180910390fd5b6000826001018190555080600760008282546105a391906117c0565b909155506105dd90506001600160a01b037f00000000000000000000000000000000000000000000000000000000000000001633836112d7565b60405181815233907ffc30cddea38e2bf4d6ea7d3f9ed3b6ad7f176419f4963bd81318067a4aee73fe9060200160405180910390a2505061061d60018055565b565b6001600160a01b03811660009081526008602052604081206004015460ff16600181600381111561065257610652611664565b148061066f5750600281600381111561066d5761066d611664565b145b9392505050565b61067e61127e565b33600090815260086020526040812090600482015460ff1660038111156106a7576106a7611664565b146106c5576040516320e8cb6760e21b815260040160405180910390fd5b6002548210156106e857604051630103be3b60e21b815260040160405180910390fd5b6004546005541061070c576040516376bca46b60e11b815260040160405180910390fd5b6107416001600160a01b037f00000000000000000000000000000000000000000000000000000000000000001633308561133a565b818155600060018083018290554260028401556003830182905560048301805460ff191682179055600580549192909161077c9084906117a7565b92505081905550816006600082825461079591906117a7565b90915550503360009081526009602052604090205460ff1661080e57336000818152600960205260408120805460ff19166001908117909155600a805491820181559091527fc65a7bb8d6351c1cf70c95a316cc6a92839c986682d98bc35f958f4883f9d2a80180546001600160a01b03191690911790555b600281015460405133917f4fedf9289a156b214915bd5c2db58d3ee16acc185e80df66ee404e4573c821e19161084c91868252602082015260400190565b60405180910390a25061085e60018055565b50565b610869611224565b61061d6000611378565b6040516370a0823160e01b815230600482015260009081906001600160a01b037f000000000000000000000000000000000000000000000000000000000000000016906370a0823190602401602060405180830381865afa1580156108dc573d6000803e3d6000fd5b505050506040513d601f19601f8201168201806040525081019061090091906117d3565b9050600060075460065461091491906117a7565b90508082116109265760009250505090565b61093081836117c0565b9250505090565b3360009081526008602052604090206001600482015460ff16600381111561096157610961611664565b1461097f576040516353670afb60e11b815260040160405180910390fd5b60048101805460ff1916600217905560035461099b90426117a7565b6003820181905560405190815233907f239de5bbc96d8d3958406ea8afcce5ea046fbc26e65e14b9b03e33288362ec939060200160405180910390a250565b6109e2611224565b80600003610a035760405163c52a9bd360e01b815260040160405180910390fd5b60028190556040518181527f47ab46f2c8d4258304a2f5551c1cbdb6981be49631365d1ba7191288a73f39ef906020015b60405180910390a150565b610a4761127e565b80600003610a6857604051630103be3b60e21b815260040160405180910390fd5b610a9d6001600160a01b037f00000000000000000000000000000000000000000000000000000000000000001633308461133a565b60405181815233907fd53214ca07be5520e229c395f05a3e5c0697ec6279184ffbe2758d304fd322cc9060200160405180910390a261085e60018055565b610ae3611224565b801580610af1575060055481105b15610b0f5760405163c52a9bd360e01b815260040160405180910390fd5b60048190556040518181527fa8cea9a3fea31aec90e33ebd66f21df3b5fad9bfe3351176bb2bb30ddd0786e390602001610a34565b610b4c61127e565b3360009081526008602052604090206002600482015460ff166003811115610b7657610b76611664565b14610b94576040516306a0786d60e51b815260040160405180910390fd5b8060030154421015610bb957604051630e207aad60e01b815260040160405180910390fd5b8054600182015460068054839190600090610bd59084906117c0565b92505081905550600160056000828254610bef91906117c0565b90915550508015610c12578060076000828254610c0c91906117c0565b90915550505b60008084556001840181905560028401819055600384015560048301805460ff19169055610c7533610c4483856117a7565b6001600160a01b037f00000000000000000000000000000000000000000000000000000000000000001691906112d7565b604080518381526020810183905233917f6103e24bbc06607254dd8d255c88cd7b6a5c2419b6a9a09eb65fc3738261cb25910160405180910390a250505061061d60018055565b610cc4611224565b610ccc61127e565b6001600160a01b0382161580610ce0575080155b15610cfe57604051630103be3b60e21b815260040160405180910390fd5b6000610d08610873565b905081811015610d2b57604051630d75c42960e31b815260040160405180910390fd5b610d5f6001600160a01b037f00000000000000000000000000000000000000000000000000000000000000001684846112d7565b50610d6960018055565b5050565b610d75611224565b60038190556040518181527fcc67306c5d19f79a73208a1270ca19eb367b4bd5258eac096e974365d18e432c90602001610a34565b610db261127e565b80600003610dd357604051630103be3b60e21b815260040160405180910390fd5b3360009081526008602052604090206001600482015460ff166003811115610dfd57610dfd611664565b14610e1b576040516353670afb60e11b815260040160405180910390fd5b610e506001600160a01b037f00000000000000000000000000000000000000000000000000000000000000001633308561133a565b81816000016000828254610e6491906117a7565b925050819055508160066000828254610e7d91906117a7565b9091555050805460405133917fac92c7d285d0079961f094ffae48e3a77cd67ad29746583f9dc02f1d6cf1d8e19161084c91868252602082015260400190565b610ec5611224565b6001600160a01b038116610f2f5760405162461bcd60e51b815260206004820152602660248201527f4f776e61626c653a206e6577206f776e657220697320746865207a65726f206160448201526564647265737360d01b60648201526084015b60405180910390fd5b61085e81611378565b6060600a805480602002602001604051908101604052809291908181526020018280548015610f9057602002820191906000526020600020905b81546001600160a01b03168152600190910190602001808311610f72575b5050505050905090565b3360009081526008602052604090206002600482015460ff166003811115610fc457610fc4611664565b14610fe2576040516306a0786d60e51b815260040160405180910390fd5b60048101805460ff1916600117905560006003820181905560405133917f46550599fa62c9f16dc0cdc42ce629a5e19912d3f2596a092c8e7701b7200da891a250565b61102d611224565b61103561127e565b8160000361105657604051630103be3b60e21b815260040160405180910390fd5b6001600160a01b03831660009081526008602052604090206001600482015460ff16600381111561108957611089611664565b141580156110b057506002600482015460ff1660038111156110ad576110ad611664565b14155b156110ce576040516359762cc560e11b815260040160405180910390fd5b805460009084116110df57836110e2565b81545b9050808260000160008282546110f891906117c0565b92505081905550806006600082825461111191906117c0565b909155505081546000036111845760016005600082825461113291906117c0565b90915550506001820154156111645781600101546007600082825461115791906117c0565b9091555050600060018301555b60048201805460ff19166003908117909155600090830181905560028301555b6001600160a01b038316156111c7576111c76001600160a01b037f00000000000000000000000000000000000000000000000000000000000000001684836112d7565b826001600160a01b0316856001600160a01b03167fa2ce4664df80a3d0d2f08c7d38b7a94100ccccf1882900a343067bb266ed63c48360405161120c91815260200190565b60405180910390a3505061121f60018055565b505050565b6000546001600160a01b0316331461061d5760405162461bcd60e51b815260206004820181905260248201527f4f776e61626c653a2063616c6c6572206973206e6f7420746865206f776e65726044820152606401610f26565b6002600154036112d05760405162461bcd60e51b815260206004820152601f60248201527f5265656e7472616e637947756172643a207265656e7472616e742063616c6c006044820152606401610f26565b6002600155565b6040516001600160a01b03831660248201526044810182905261121f90849063a9059cbb60e01b906064015b60408051601f198184030181529190526020810180516001600160e01b03166001600160e01b0319909316929092179091526113c8565b6040516001600160a01b03808516602483015283166044820152606481018290526113729085906323b872dd60e01b90608401611303565b50505050565b600080546001600160a01b038381166001600160a01b0319831681178455604051919092169283917f8be0079c531659141344cd1fd0a4f28419497f9722a3daafe3b4186f6b6457e09190a35050565b600061141d826040518060400160405280602081526020017f5361666545524332303a206c6f772d6c6576656c2063616c6c206661696c6564815250856001600160a01b031661149d9092919063ffffffff16565b905080516000148061143e57508080602001905181019061143e91906117ec565b61121f5760405162461bcd60e51b815260206004820152602a60248201527f5361666545524332303a204552433230206f7065726174696f6e20646964206e6044820152691bdd081cdd58d8d9595960b21b6064820152608401610f26565b60606114ac84846000856114b4565b949350505050565b6060824710156115155760405162461bcd60e51b815260206004820152602660248201527f416464726573733a20696e73756666696369656e742062616c616e636520666f6044820152651c8818d85b1b60d21b6064820152608401610f26565b600080866001600160a01b031685876040516115319190611832565b60006040518083038185875af1925050503d806000811461156e576040519150601f19603f3d011682016040523d82523d6000602084013e611573565b606091505b50915091506115848783838761158f565b979650505050505050565b606083156115fe5782516000036115f7576001600160a01b0385163b6115f75760405162461bcd60e51b815260206004820152601d60248201527f416464726573733a2063616c6c20746f206e6f6e2d636f6e74726163740000006044820152606401610f26565b50816114ac565b6114ac83838151156116135781518083602001fd5b8060405162461bcd60e51b8152600401610f26919061184e565b80356001600160a01b038116811461164457600080fd5b919050565b60006020828403121561165b57600080fd5b61066f8261162d565b634e487b7160e01b600052602160045260246000fd5b600060a082019050868252856020830152846040830152836060830152600483106116b557634e487b7160e01b600052602160045260246000fd5b8260808301529695505050505050565b600080604083850312156116d857600080fd5b6116e18361162d565b946020939093013593505050565b60006020828403121561170157600080fd5b5035919050565b6020808252825182820181905260009190848201906040850190845b818110156117495783516001600160a01b031683529284019291840191600101611724565b50909695505050505050565b60008060006060848603121561176a57600080fd5b6117738461162d565b9250602084013591506117886040850161162d565b90509250925092565b634e487b7160e01b600052601160045260246000fd5b808201808211156117ba576117ba611791565b92915050565b818103818111156117ba576117ba611791565b6000602082840312156117e557600080fd5b5051919050565b6000602082840312156117fe57600080fd5b8151801515811461066f57600080fd5b60005b83811015611829578181015183820152602001611811565b50506000910152565b6000825161184481846020870161180e565b9190910192915050565b602081526000825180602084015261186d81604085016020870161180e565b601f01601f1916919091016040019291505056fea26469706673582212208a973483b81316369c086bf75a14fce6588383b67588bdaf4e778aae413bad8364736f6c63430008130033","opcodes":"PUSH1 0xA0 PUSH1 0x40 MSTORE CALLVALUE DUP1 ISZERO PUSH3 0x11 JUMPI PUSH1 0x0 DUP1 REVERT JUMPDEST POP PUSH1 0x40 MLOAD PUSH3 0x1A49 CODESIZE SUB DUP1 PUSH3 0x1A49 DUP4 CODECOPY DUP2 ADD PUSH1 0x40 DUP2 SWAP1 MSTORE PUSH3 0x34 SWAP2 PUSH3 0xF1 JUMP JUMPDEST PUSH3 0x3F CALLER PUSH3 0xA1 JUMP JUMPDEST PUSH1 0x1 DUP1 SSTORE PUSH1 0x1 PUSH1 0x1 PUSH1 0xA0 SHL SUB DUP5 AND ISZERO DUP1 PUSH3 0x58 JUMPI POP DUP3 ISZERO JUMPDEST DUP1 PUSH3 0x62 JUMPI POP DUP1 ISZERO JUMPDEST ISZERO PUSH3 0x81 JUMPI PUSH1 0x40 MLOAD PUSH4 0xC52A9BD3 PUSH1 0xE0 SHL DUP2 MSTORE PUSH1 0x4 ADD PUSH1 0x40 MLOAD DUP1 SWAP2 SUB SWAP1 REVERT JUMPDEST PUSH1 0x1 PUSH1 0x1 PUSH1 0xA0 SHL SUB SWAP1 SWAP4 AND PUSH1 0x80 MSTORE PUSH1 0x2 SWAP2 SWAP1 SWAP2 SSTORE PUSH1 0x3 SSTORE PUSH1 0x4 SSTORE PUSH3 0x13E JUMP JUMPDEST PUSH1 0x0 DUP1 SLOAD PUSH1 0x1 PUSH1 0x1 PUSH1 0xA0 SHL SUB DUP4 DUP2 AND PUSH1 0x1 PUSH1 0x1 PUSH1 0xA0 SHL SUB NOT DUP4 AND DUP2 OR DUP5 SSTORE PUSH1 0x40 MLOAD SWAP2 SWAP1 SWAP3 AND SWAP3 DUP4 SWAP2 PUSH32 0x8BE0079C531659141344CD1FD0A4F28419497F9722A3DAAFE3B4186F6B6457E0 SWAP2 SWAP1 LOG3 POP POP JUMP JUMPDEST PUSH1 0x0 DUP1 PUSH1 0x0 DUP1 PUSH1 0x80 DUP6 DUP8 SUB SLT ISZERO PUSH3 0x108 JUMPI PUSH1 0x0 DUP1 REVERT JUMPDEST DUP5 MLOAD PUSH1 0x1 PUSH1 0x1 PUSH1 0xA0 SHL SUB DUP2 AND DUP2 EQ PUSH3 0x120 JUMPI PUSH1 0x0 DUP1 REVERT JUMPDEST PUSH1 0x20 DUP7 ADD MLOAD PUSH1 0x40 DUP8 ADD MLOAD PUSH1 0x60 SWAP1 SWAP8 ADD MLOAD SWAP2 SWAP9 SWAP1 SWAP8 POP SWAP1 SWAP5 POP SWAP3 POP POP POP JUMP JUMPDEST PUSH1 0x80 MLOAD PUSH2 0x18B7 PUSH3 0x192 PUSH1 0x0 CODECOPY PUSH1 0x0 DUP2 DUP2 PUSH2 0x2A2 ADD MSTORE DUP2 DUP2 PUSH2 0x5B6 ADD MSTORE DUP2 DUP2 PUSH2 0x719 ADD MSTORE DUP2 DUP2 PUSH2 0x895 ADD MSTORE DUP2 DUP2 PUSH2 0xA75 ADD MSTORE DUP2 DUP2 PUSH2 0xC4E ADD MSTORE DUP2 DUP2 PUSH2 0xD38 ADD MSTORE DUP2 DUP2 PUSH2 0xE28 ADD MSTORE PUSH2 0x11A0 ADD MSTORE PUSH2 0x18B7 PUSH1 0x0 RETURN INVALID PUSH1 0x80 PUSH1 0x40 MSTORE CALLVALUE DUP1 ISZERO PUSH2 0x10 JUMPI PUSH1 0x0 DUP1 REVERT JUMPDEST POP PUSH1 0x4 CALLDATASIZE LT PUSH2 0x1A9 JUMPI PUSH1 0x0 CALLDATALOAD PUSH1 0xE0 SHR DUP1 PUSH4 0x8C80FD90 GT PUSH2 0xF9 JUMPI DUP1 PUSH4 0xEC1371F2 GT PUSH2 0x97 JUMPI DUP1 PUSH4 0xF2FDE38B GT PUSH2 0x71 JUMPI DUP1 PUSH4 0xF2FDE38B EQ PUSH2 0x389 JUMPI DUP1 PUSH4 0xF74E921F EQ PUSH2 0x39C JUMPI DUP1 PUSH4 0xFDF364E4 EQ PUSH2 0x3B1 JUMPI DUP1 PUSH4 0xFE53259A EQ PUSH2 0x3B9 JUMPI PUSH1 0x0 DUP1 REVERT JUMPDEST DUP1 PUSH4 0xEC1371F2 EQ PUSH2 0x364 JUMPI DUP1 PUSH4 0xEE947A7C EQ PUSH2 0x36D JUMPI DUP1 PUSH4 0xEEDAD66B EQ PUSH2 0x376 JUMPI PUSH1 0x0 DUP1 REVERT JUMPDEST DUP1 PUSH4 0x9BB2EA5A GT PUSH2 0xD3 JUMPI DUP1 PUSH4 0x9BB2EA5A EQ PUSH2 0x323 JUMPI DUP1 PUSH4 0xB01EB660 EQ PUSH2 0x336 JUMPI DUP1 PUSH4 0xB7587941 EQ PUSH2 0x33E JUMPI DUP1 PUSH4 0xC771C390 EQ PUSH2 0x351 JUMPI PUSH1 0x0 DUP1 REVERT JUMPDEST DUP1 PUSH4 0x8C80FD90 EQ PUSH2 0x2EC JUMPI DUP1 PUSH4 0x8DA5CB5B EQ PUSH2 0x2FF JUMPI DUP1 PUSH4 0x93707A19 EQ PUSH2 0x310 JUMPI PUSH1 0x0 DUP1 REVERT JUMPDEST DUP1 PUSH4 0x375B3C0A GT PUSH2 0x166 JUMPI DUP1 PUSH4 0x715018A6 GT PUSH2 0x140 JUMPI DUP1 PUSH4 0x715018A6 EQ PUSH2 0x295 JUMPI DUP1 PUSH4 0x72F702F3 EQ PUSH2 0x29D JUMPI DUP1 PUSH4 0x7A5C08AE EQ PUSH2 0x2DC JUMPI DUP1 PUSH4 0x7F8E3B4E EQ PUSH2 0x2E4 JUMPI PUSH1 0x0 DUP1 REVERT JUMPDEST DUP1 PUSH4 0x375B3C0A EQ PUSH2 0x256 JUMPI DUP1 PUSH4 0x42AD55AC EQ PUSH2 0x25F JUMPI DUP1 PUSH4 0x679CDB06 EQ PUSH2 0x282 JUMPI PUSH1 0x0 DUP1 REVERT JUMPDEST DUP1 PUSH4 0x8AC5256 EQ PUSH2 0x1AE JUMPI DUP1 PUSH4 0x1904BB2E EQ PUSH2 0x1CA JUMPI DUP1 PUSH4 0x1AA7E577 EQ PUSH2 0x227 JUMPI DUP1 PUSH4 0x2340E8D3 EQ PUSH2 0x23C JUMPI DUP1 PUSH4 0x28F73148 EQ PUSH2 0x245 JUMPI DUP1 PUSH4 0x372500AB EQ PUSH2 0x24E JUMPI JUMPDEST PUSH1 0x0 DUP1 REVERT JUMPDEST PUSH2 0x1B7 PUSH1 0x4 SLOAD DUP2 JUMP JUMPDEST PUSH1 0x40 MLOAD SWAP1 DUP2 MSTORE PUSH1 0x20 ADD JUMPDEST PUSH1 0x40 MLOAD DUP1 SWAP2 SUB SWAP1 RETURN JUMPDEST PUSH2 0x216 PUSH2 0x1D8 CALLDATASIZE PUSH1 0x4 PUSH2 0x1649 JUMP JUMPDEST PUSH1 0x1 PUSH1 0x1 PUSH1 0xA0 SHL SUB AND PUSH1 0x0 SWAP1 DUP2 MSTORE PUSH1 0x8 PUSH1 0x20 MSTORE PUSH1 0x40 SWAP1 KECCAK256 DUP1 SLOAD PUSH1 0x1 DUP3 ADD SLOAD PUSH1 0x2 DUP4 ADD SLOAD PUSH1 0x3 DUP5 ADD SLOAD PUSH1 0x4 SWAP1 SWAP5 ADD SLOAD SWAP3 SWAP5 SWAP2 SWAP4 SWAP1 SWAP3 SWAP1 SWAP2 PUSH1 0xFF SWAP1 SWAP2 AND SWAP1 JUMP JUMPDEST PUSH1 0x40 MLOAD PUSH2 0x1C1 SWAP6 SWAP5 SWAP4 SWAP3 SWAP2 SWAP1 PUSH2 0x167A JUMP JUMPDEST PUSH2 0x23A PUSH2 0x235 CALLDATASIZE PUSH1 0x4 PUSH2 0x16C5 JUMP JUMPDEST PUSH2 0x3CC JUMP JUMPDEST STOP JUMPDEST PUSH2 0x1B7 PUSH1 0x5 SLOAD DUP2 JUMP JUMPDEST PUSH2 0x1B7 PUSH1 0x6 SLOAD DUP2 JUMP JUMPDEST PUSH2 0x23A PUSH2 0x510 JUMP JUMPDEST PUSH2 0x1B7 PUSH1 0x2 SLOAD DUP2 JUMP JUMPDEST PUSH2 0x272 PUSH2 0x26D CALLDATASIZE PUSH1 0x4 PUSH2 0x1649 JUMP JUMPDEST PUSH2 0x61F JUMP JUMPDEST PUSH1 0x40 MLOAD SWAP1 ISZERO ISZERO DUP2 MSTORE PUSH1 0x20 ADD PUSH2 0x1C1 JUMP JUMPDEST PUSH2 0x23A PUSH2 0x290 CALLDATASIZE PUSH1 0x4 PUSH2 0x16EF JUMP JUMPDEST PUSH2 0x676 JUMP JUMPDEST PUSH2 0x23A PUSH2 0x861 JUMP JUMPDEST PUSH2 0x2C4 PUSH32 0x0 DUP2 JUMP JUMPDEST PUSH1 0x40 MLOAD PUSH1 0x1 PUSH1 0x1 PUSH1 0xA0 SHL SUB SWAP1 SWAP2 AND DUP2 MSTORE PUSH1 0x20 ADD PUSH2 0x1C1 JUMP JUMPDEST PUSH2 0x1B7 PUSH2 0x873 JUMP JUMPDEST PUSH2 0x23A PUSH2 0x937 JUMP JUMPDEST PUSH2 0x23A PUSH2 0x2FA CALLDATASIZE PUSH1 0x4 PUSH2 0x16EF JUMP JUMPDEST PUSH2 0x9DA JUMP JUMPDEST PUSH1 0x0 SLOAD PUSH1 0x1 PUSH1 0x1 PUSH1 0xA0 SHL SUB AND PUSH2 0x2C4 JUMP JUMPDEST PUSH2 0x23A PUSH2 0x31E CALLDATASIZE PUSH1 0x4 PUSH2 0x16EF JUMP JUMPDEST PUSH2 0xA3F JUMP JUMPDEST PUSH2 0x23A PUSH2 0x331 CALLDATASIZE PUSH1 0x4 PUSH2 0x16EF JUMP JUMPDEST PUSH2 0xADB JUMP JUMPDEST PUSH2 0x23A PUSH2 0xB44 JUMP JUMPDEST PUSH2 0x23A PUSH2 0x34C CALLDATASIZE PUSH1 0x4 PUSH2 0x16C5 JUMP JUMPDEST PUSH2 0xCBC JUMP JUMPDEST PUSH2 0x23A PUSH2 0x35F CALLDATASIZE PUSH1 0x4 PUSH2 0x16EF JUMP JUMPDEST PUSH2 0xD6D JUMP JUMPDEST PUSH2 0x1B7 PUSH1 0x7 SLOAD DUP2 JUMP JUMPDEST PUSH2 0x1B7 PUSH1 0x3 SLOAD DUP2 JUMP JUMPDEST PUSH2 0x23A PUSH2 0x384 CALLDATASIZE PUSH1 0x4 PUSH2 0x16EF JUMP JUMPDEST PUSH2 0xDAA JUMP JUMPDEST PUSH2 0x23A PUSH2 0x397 CALLDATASIZE PUSH1 0x4 PUSH2 0x1649 JUMP JUMPDEST PUSH2 0xEBD JUMP JUMPDEST PUSH2 0x3A4 PUSH2 0xF38 JUMP JUMPDEST PUSH1 0x40 MLOAD PUSH2 0x1C1 SWAP2 SWAP1 PUSH2 0x1708 JUMP JUMPDEST PUSH2 0x23A PUSH2 0xF9A JUMP JUMPDEST PUSH2 0x23A PUSH2 0x3C7 CALLDATASIZE PUSH1 0x4 PUSH2 0x1755 JUMP JUMPDEST PUSH2 0x1025 JUMP JUMPDEST PUSH2 0x3D4 PUSH2 0x1224 JUMP JUMPDEST DUP1 PUSH1 0x0 SUB PUSH2 0x3F5 JUMPI PUSH1 0x40 MLOAD PUSH4 0x103BE3B PUSH1 0xE2 SHL DUP2 MSTORE PUSH1 0x4 ADD PUSH1 0x40 MLOAD DUP1 SWAP2 SUB SWAP1 REVERT JUMPDEST PUSH1 0x1 PUSH1 0x1 PUSH1 0xA0 SHL SUB DUP3 AND PUSH1 0x0 SWAP1 DUP2 MSTORE PUSH1 0x8 PUSH1 0x20 MSTORE PUSH1 0x40 SWAP1 KECCAK256 PUSH1 0x1 PUSH1 0x4 DUP3 ADD SLOAD PUSH1 0xFF AND PUSH1 0x3 DUP2 GT ISZERO PUSH2 0x428 JUMPI PUSH2 0x428 PUSH2 0x1664 JUMP JUMPDEST EQ ISZERO DUP1 ISZERO PUSH2 0x44F JUMPI POP PUSH1 0x2 PUSH1 0x4 DUP3 ADD SLOAD PUSH1 0xFF AND PUSH1 0x3 DUP2 GT ISZERO PUSH2 0x44C JUMPI PUSH2 0x44C PUSH2 0x1664 JUMP JUMPDEST EQ ISZERO JUMPDEST ISZERO PUSH2 0x46D JUMPI PUSH1 0x40 MLOAD PUSH4 0x580E542F PUSH1 0xE0 SHL DUP2 MSTORE PUSH1 0x4 ADD PUSH1 0x40 MLOAD DUP1 SWAP2 SUB SWAP1 REVERT JUMPDEST PUSH1 0x0 PUSH2 0x477 PUSH2 0x873 JUMP JUMPDEST SWAP1 POP DUP3 DUP2 LT ISZERO PUSH2 0x49A JUMPI PUSH1 0x40 MLOAD PUSH4 0xD75C429 PUSH1 0xE3 SHL DUP2 MSTORE PUSH1 0x4 ADD PUSH1 0x40 MLOAD DUP1 SWAP2 SUB SWAP1 REVERT JUMPDEST DUP3 DUP3 PUSH1 0x1 ADD PUSH1 0x0 DUP3 DUP3 SLOAD PUSH2 0x4AE SWAP2 SWAP1 PUSH2 0x17A7 JUMP JUMPDEST SWAP3 POP POP DUP2 SWAP1 SSTORE POP DUP3 PUSH1 0x7 PUSH1 0x0 DUP3 DUP3 SLOAD PUSH2 0x4C7 SWAP2 SWAP1 PUSH2 0x17A7 JUMP JUMPDEST SWAP1 SWAP2 SSTORE POP POP PUSH1 0x40 MLOAD DUP4 DUP2 MSTORE PUSH1 0x1 PUSH1 0x1 PUSH1 0xA0 SHL SUB DUP6 AND SWAP1 PUSH32 0x560EF4F9524AF91C8F006852A8707C3F256C238779F8CC088BBE202BB82E632E SWAP1 PUSH1 0x20 ADD PUSH1 0x40 MLOAD DUP1 SWAP2 SUB SWAP1 LOG2 POP POP POP POP JUMP JUMPDEST PUSH2 0x518 PUSH2 0x127E JUMP JUMPDEST CALLER PUSH1 0x0 SWAP1 DUP2 MSTORE PUSH1 0x8 PUSH1 0x20 MSTORE PUSH1 0x40 SWAP1 KECCAK256 PUSH1 0x1 PUSH1 0x4 DUP3 ADD SLOAD PUSH1 0xFF AND PUSH1 0x3 DUP2 GT ISZERO PUSH2 0x542 JUMPI PUSH2 0x542 PUSH2 0x1664 JUMP JUMPDEST EQ PUSH2 0x560 JUMPI PUSH1 0x40 MLOAD PUSH4 0x53670AFB PUSH1 0xE1 SHL DUP2 MSTORE PUSH1 0x4 ADD PUSH1 0x40 MLOAD DUP1 SWAP2 SUB SWAP1 REVERT JUMPDEST PUSH1 0x1 DUP2 ADD SLOAD PUSH1 0x0 DUP2 SWAP1 SUB PUSH2 0x587 JUMPI PUSH1 0x40 MLOAD PUSH4 0x12D37EE5 PUSH1 0xE3 SHL DUP2 MSTORE PUSH1 0x4 ADD PUSH1 0x40 MLOAD DUP1 SWAP2 SUB SWAP1 REVERT JUMPDEST PUSH1 0x0 DUP3 PUSH1 0x1 ADD DUP2 SWAP1 SSTORE POP DUP1 PUSH1 0x7 PUSH1 0x0 DUP3 DUP3 SLOAD PUSH2 0x5A3 SWAP2 SWAP1 PUSH2 0x17C0 JUMP JUMPDEST SWAP1 SWAP2 SSTORE POP PUSH2 0x5DD SWAP1 POP PUSH1 0x1 PUSH1 0x1 PUSH1 0xA0 SHL SUB PUSH32 0x0 AND CALLER DUP4 PUSH2 0x12D7 JUMP JUMPDEST PUSH1 0x40 MLOAD DUP2 DUP2 MSTORE CALLER SWAP1 PUSH32 0xFC30CDDEA38E2BF4D6EA7D3F9ED3B6AD7F176419F4963BD81318067A4AEE73FE SWAP1 PUSH1 0x20 ADD PUSH1 0x40 MLOAD DUP1 SWAP2 SUB SWAP1 LOG2 POP POP PUSH2 0x61D PUSH1 0x1 DUP1 SSTORE JUMP JUMPDEST JUMP JUMPDEST PUSH1 0x1 PUSH1 0x1 PUSH1 0xA0 SHL SUB DUP2 AND PUSH1 0x0 SWAP1 DUP2 MSTORE PUSH1 0x8 PUSH1 0x20 MSTORE PUSH1 0x40 DUP2 KECCAK256 PUSH1 0x4 ADD SLOAD PUSH1 0xFF AND PUSH1 0x1 DUP2 PUSH1 0x3 DUP2 GT ISZERO PUSH2 0x652 JUMPI PUSH2 0x652 PUSH2 0x1664 JUMP JUMPDEST EQ DUP1 PUSH2 0x66F JUMPI POP PUSH1 0x2 DUP2 PUSH1 0x3 DUP2 GT ISZERO PUSH2 0x66D JUMPI PUSH2 0x66D PUSH2 0x1664 JUMP JUMPDEST EQ JUMPDEST SWAP4 SWAP3 POP POP POP JUMP JUMPDEST PUSH2 0x67E PUSH2 0x127E JUMP JUMPDEST CALLER PUSH1 0x0 SWAP1 DUP2 MSTORE PUSH1 0x8 PUSH1 0x20 MSTORE PUSH1 0x40 DUP2 KECCAK256 SWAP1 PUSH1 0x4 DUP3 ADD SLOAD PUSH1 0xFF AND PUSH1 0x3 DUP2 GT ISZERO PUSH2 0x6A7 JUMPI PUSH2 0x6A7 PUSH2 0x1664 JUMP JUMPDEST EQ PUSH2 0x6C5 JUMPI PUSH1 0x40 MLOAD PUSH4 0x20E8CB67 PUSH1 0xE2 SHL DUP2 MSTORE PUSH1 0x4 ADD PUSH1 0x40 MLOAD DUP1 SWAP2 SUB SWAP1 REVERT JUMPDEST PUSH1 0x2 SLOAD DUP3 LT ISZERO PUSH2 0x6E8 JUMPI PUSH1 0x40 MLOAD PUSH4 0x103BE3B PUSH1 0xE2 SHL DUP2 MSTORE PUSH1 0x4 ADD PUSH1 0x40 MLOAD DUP1 SWAP2 SUB SWAP1 REVERT JUMPDEST PUSH1 0x4 SLOAD PUSH1 0x5 SLOAD LT PUSH2 0x70C JUMPI PUSH1 0x40 MLOAD PUSH4 0x76BCA46B PUSH1 0xE1 SHL DUP2 MSTORE PUSH1 0x4 ADD PUSH1 0x40 MLOAD DUP1 SWAP2 SUB SWAP1 REVERT JUMPDEST PUSH2 0x741 PUSH1 0x1 PUSH1 0x1 PUSH1 0xA0 SHL SUB PUSH32 0x0 AND CALLER ADDRESS DUP6 PUSH2 0x133A JUMP JUMPDEST DUP2 DUP2 SSTORE PUSH1 0x0 PUSH1 0x1 DUP1 DUP4 ADD DUP3 SWAP1 SSTORE TIMESTAMP PUSH1 0x2 DUP5 ADD SSTORE PUSH1 0x3 DUP4 ADD DUP3 SWAP1 SSTORE PUSH1 0x4 DUP4 ADD DUP1 SLOAD PUSH1 0xFF NOT AND DUP3 OR SWAP1 SSTORE PUSH1 0x5 DUP1 SLOAD SWAP2 SWAP3 SWAP1 SWAP2 PUSH2 0x77C SWAP1 DUP5 SWAP1 PUSH2 0x17A7 JUMP JUMPDEST SWAP3 POP POP DUP2 SWAP1 SSTORE POP DUP2 PUSH1 0x6 PUSH1 0x0 DUP3 DUP3 SLOAD PUSH2 0x795 SWAP2 SWAP1 PUSH2 0x17A7 JUMP JUMPDEST SWAP1 SWAP2 SSTORE POP POP CALLER PUSH1 0x0 SWAP1 DUP2 MSTORE PUSH1 0x9 PUSH1 0x20 MSTORE PUSH1 0x40 SWAP1 KECCAK256 SLOAD PUSH1 0xFF AND PUSH2 0x80E JUMPI CALLER PUSH1 0x0 DUP2 DUP2 MSTORE PUSH1 0x9 PUSH1 0x20 MSTORE PUSH1 0x40 DUP2 KECCAK256 DUP1 SLOAD PUSH1 0xFF NOT AND PUSH1 0x1 SWAP1 DUP2 OR SWAP1 SWAP2 SSTORE PUSH1 0xA DUP1 SLOAD SWAP2 DUP3 ADD DUP2 SSTORE SWAP1 SWAP2 MSTORE PUSH32 0xC65A7BB8D6351C1CF70C95A316CC6A92839C986682D98BC35F958F4883F9D2A8 ADD DUP1 SLOAD PUSH1 0x1 PUSH1 0x1 PUSH1 0xA0 SHL SUB NOT AND SWAP1 SWAP2 OR SWAP1 SSTORE JUMPDEST PUSH1 0x2 DUP2 ADD SLOAD PUSH1 0x40 MLOAD CALLER SWAP2 PUSH32 0x4FEDF9289A156B214915BD5C2DB58D3EE16ACC185E80DF66EE404E4573C821E1 SWAP2 PUSH2 0x84C SWAP2 DUP7 DUP3 MSTORE PUSH1 0x20 DUP3 ADD MSTORE PUSH1 0x40 ADD SWAP1 JUMP JUMPDEST PUSH1 0x40 MLOAD DUP1 SWAP2 SUB SWAP1 LOG2 POP PUSH2 0x85E PUSH1 0x1 DUP1 SSTORE JUMP JUMPDEST POP JUMP JUMPDEST PUSH2 0x869 PUSH2 0x1224 JUMP JUMPDEST PUSH2 0x61D PUSH1 0x0 PUSH2 0x1378 JUMP JUMPDEST PUSH1 0x40 MLOAD PUSH4 0x70A08231 PUSH1 0xE0 SHL DUP2 MSTORE ADDRESS PUSH1 0x4 DUP3 ADD MSTORE PUSH1 0x0 SWAP1 DUP2 SWAP1 PUSH1 0x1 PUSH1 0x1 PUSH1 0xA0 SHL SUB PUSH32 0x0 AND SWAP1 PUSH4 0x70A08231 SWAP1 PUSH1 0x24 ADD PUSH1 0x20 PUSH1 0x40 MLOAD DUP1 DUP4 SUB DUP2 DUP7 GAS STATICCALL ISZERO DUP1 ISZERO PUSH2 0x8DC JUMPI RETURNDATASIZE PUSH1 0x0 DUP1 RETURNDATACOPY RETURNDATASIZE PUSH1 0x0 REVERT JUMPDEST POP POP POP POP PUSH1 0x40 MLOAD RETURNDATASIZE PUSH1 0x1F NOT PUSH1 0x1F DUP3 ADD AND DUP3 ADD DUP1 PUSH1 0x40 MSTORE POP DUP2 ADD SWAP1 PUSH2 0x900 SWAP2 SWAP1 PUSH2 0x17D3 JUMP JUMPDEST SWAP1 POP PUSH1 0x0 PUSH1 0x7 SLOAD PUSH1 0x6 SLOAD PUSH2 0x914 SWAP2 SWAP1 PUSH2 0x17A7 JUMP JUMPDEST SWAP1 POP DUP1 DUP3 GT PUSH2 0x926 JUMPI PUSH1 0x0 SWAP3 POP POP POP SWAP1 JUMP JUMPDEST PUSH2 0x930 DUP2 DUP4 PUSH2 0x17C0 JUMP JUMPDEST SWAP3 POP POP POP SWAP1 JUMP JUMPDEST CALLER PUSH1 0x0 SWAP1 DUP2 MSTORE PUSH1 0x8 PUSH1 0x20 MSTORE PUSH1 0x40 SWAP1 KECCAK256 PUSH1 0x1 PUSH1 0x4 DUP3 ADD SLOAD PUSH1 0xFF AND PUSH1 0x3 DUP2 GT ISZERO PUSH2 0x961 JUMPI PUSH2 0x961 PUSH2 0x1664 JUMP JUMPDEST EQ PUSH2 0x97F JUMPI PUSH1 0x40 MLOAD PUSH4 0x53670AFB PUSH1 0xE1 SHL DUP2 MSTORE PUSH1 0x4 ADD PUSH1 0x40 MLOAD DUP1 SWAP2 SUB SWAP1 REVERT JUMPDEST PUSH1 0x4 DUP2 ADD DUP1 SLOAD PUSH1 0xFF NOT AND PUSH1 0x2 OR SWAP1 SSTORE PUSH1 0x3 SLOAD PUSH2 0x99B SWAP1 TIMESTAMP PUSH2 0x17A7 JUMP JUMPDEST PUSH1 0x3 DUP3 ADD DUP2 SWAP1 SSTORE PUSH1 0x40 MLOAD SWAP1 DUP2 MSTORE CALLER SWAP1 PUSH32 0x239DE5BBC96D8D3958406EA8AFCCE5EA046FBC26E65E14B9B03E33288362EC93 SWAP1 PUSH1 0x20 ADD PUSH1 0x40 MLOAD DUP1 SWAP2 SUB SWAP1 LOG2 POP JUMP JUMPDEST PUSH2 0x9E2 PUSH2 0x1224 JUMP JUMPDEST DUP1 PUSH1 0x0 SUB PUSH2 0xA03 JUMPI PUSH1 0x40 MLOAD PUSH4 0xC52A9BD3 PUSH1 0xE0 SHL DUP2 MSTORE PUSH1 0x4 ADD PUSH1 0x40 MLOAD DUP1 SWAP2 SUB SWAP1 REVERT JUMPDEST PUSH1 0x2 DUP2 SWAP1 SSTORE PUSH1 0x40 MLOAD DUP2 DUP2 MSTORE PUSH32 0x47AB46F2C8D4258304A2F5551C1CBDB6981BE49631365D1BA7191288A73F39EF SWAP1 PUSH1 0x20 ADD JUMPDEST PUSH1 0x40 MLOAD DUP1 SWAP2 SUB SWAP1 LOG1 POP JUMP JUMPDEST PUSH2 0xA47 PUSH2 0x127E JUMP JUMPDEST DUP1 PUSH1 0x0 SUB PUSH2 0xA68 JUMPI PUSH1 0x40 MLOAD PUSH4 0x103BE3B PUSH1 0xE2 SHL DUP2 MSTORE PUSH1 0x4 ADD PUSH1 0x40 MLOAD DUP1 SWAP2 SUB SWAP1 REVERT JUMPDEST PUSH2 0xA9D PUSH1 0x1 PUSH1 0x1 PUSH1 0xA0 SHL SUB PUSH32 0x0 AND CALLER ADDRESS DUP5 PUSH2 0x133A JUMP JUMPDEST PUSH1 0x40 MLOAD DUP2 DUP2 MSTORE CALLER SWAP1 PUSH32 0xD53214CA07BE5520E229C395F05A3E5C0697EC6279184FFBE2758D304FD322CC SWAP1 PUSH1 0x20 ADD PUSH1 0x40 MLOAD DUP1 SWAP2 SUB SWAP1 LOG2 PUSH2 0x85E PUSH1 0x1 DUP1 SSTORE JUMP JUMPDEST PUSH2 0xAE3 PUSH2 0x1224 JUMP JUMPDEST DUP1 ISZERO DUP1 PUSH2 0xAF1 JUMPI POP PUSH1 0x5 SLOAD DUP2 LT JUMPDEST ISZERO PUSH2 0xB0F JUMPI PUSH1 0x40 MLOAD PUSH4 0xC52A9BD3 PUSH1 0xE0 SHL DUP2 MSTORE PUSH1 0x4 ADD PUSH1 0x40 MLOAD DUP1 SWAP2 SUB SWAP1 REVERT JUMPDEST PUSH1 0x4 DUP2 SWAP1 SSTORE PUSH1 0x40 MLOAD DUP2 DUP2 MSTORE PUSH32 0xA8CEA9A3FEA31AEC90E33EBD66F21DF3B5FAD9BFE3351176BB2BB30DDD0786E3 SWAP1 PUSH1 0x20 ADD PUSH2 0xA34 JUMP JUMPDEST PUSH2 0xB4C PUSH2 0x127E JUMP JUMPDEST CALLER PUSH1 0x0 SWAP1 DUP2 MSTORE PUSH1 0x8 PUSH1 0x20 MSTORE PUSH1 0x40 SWAP1 KECCAK256 PUSH1 0x2 PUSH1 0x4 DUP3 ADD SLOAD PUSH1 0xFF AND PUSH1 0x3 DUP2 GT ISZERO PUSH2 0xB76 JUMPI PUSH2 0xB76 PUSH2 0x1664 JUMP JUMPDEST EQ PUSH2 0xB94 JUMPI PUSH1 0x40 MLOAD PUSH4 0x6A0786D PUSH1 0xE5 SHL DUP2 MSTORE PUSH1 0x4 ADD PUSH1 0x40 MLOAD DUP1 SWAP2 SUB SWAP1 REVERT JUMPDEST DUP1 PUSH1 0x3 ADD SLOAD TIMESTAMP LT ISZERO PUSH2 0xBB9 JUMPI PUSH1 0x40 MLOAD PUSH4 0xE207AAD PUSH1 0xE0 SHL DUP2 MSTORE PUSH1 0x4 ADD PUSH1 0x40 MLOAD DUP1 SWAP2 SUB SWAP1 REVERT JUMPDEST DUP1 SLOAD PUSH1 0x1 DUP3 ADD SLOAD PUSH1 0x6 DUP1 SLOAD DUP4 SWAP2 SWAP1 PUSH1 0x0 SWAP1 PUSH2 0xBD5 SWAP1 DUP5 SWAP1 PUSH2 0x17C0 JUMP JUMPDEST SWAP3 POP POP DUP2 SWAP1 SSTORE POP PUSH1 0x1 PUSH1 0x5 PUSH1 0x0 DUP3 DUP3 SLOAD PUSH2 0xBEF SWAP2 SWAP1 PUSH2 0x17C0 JUMP JUMPDEST SWAP1 SWAP2 SSTORE POP POP DUP1 ISZERO PUSH2 0xC12 JUMPI DUP1 PUSH1 0x7 PUSH1 0x0 DUP3 DUP3 SLOAD PUSH2 0xC0C SWAP2 SWAP1 PUSH2 0x17C0 JUMP JUMPDEST SWAP1 SWAP2 SSTORE POP POP JUMPDEST PUSH1 0x0 DUP1 DUP5 SSTORE PUSH1 0x1 DUP5 ADD DUP2 SWAP1 SSTORE PUSH1 0x2 DUP5 ADD DUP2 SWAP1 SSTORE PUSH1 0x3 DUP5 ADD SSTORE PUSH1 0x4 DUP4 ADD DUP1 SLOAD PUSH1 0xFF NOT AND SWAP1 SSTORE PUSH2 0xC75 CALLER PUSH2 0xC44 DUP4 DUP6 PUSH2 0x17A7 JUMP JUMPDEST PUSH1 0x1 PUSH1 0x1 PUSH1 0xA0 SHL SUB PUSH32 0x0 AND SWAP2 SWAP1 PUSH2 0x12D7 JUMP JUMPDEST PUSH1 0x40 DUP1 MLOAD DUP4 DUP2 MSTORE PUSH1 0x20 DUP2 ADD DUP4 SWAP1 MSTORE CALLER SWAP2 PUSH32 0x6103E24BBC06607254DD8D255C88CD7B6A5C2419B6A9A09EB65FC3738261CB25 SWAP2 ADD PUSH1 0x40 MLOAD DUP1 SWAP2 SUB SWAP1 LOG2 POP POP POP PUSH2 0x61D PUSH1 0x1 DUP1 SSTORE JUMP JUMPDEST PUSH2 0xCC4 PUSH2 0x1224 JUMP JUMPDEST PUSH2 0xCCC PUSH2 0x127E JUMP JUMPDEST PUSH1 0x1 PUSH1 0x1 PUSH1 0xA0 SHL SUB DUP3 AND ISZERO DUP1 PUSH2 0xCE0 JUMPI POP DUP1 ISZERO JUMPDEST ISZERO PUSH2 0xCFE JUMPI PUSH1 0x40 MLOAD PUSH4 0x103BE3B PUSH1 0xE2 SHL DUP2 MSTORE PUSH1 0x4 ADD PUSH1 0x40 MLOAD DUP1 SWAP2 SUB SWAP1 REVERT JUMPDEST PUSH1 0x0 PUSH2 0xD08 PUSH2 0x873 JUMP JUMPDEST SWAP1 POP DUP2 DUP2 LT ISZERO PUSH2 0xD2B JUMPI PUSH1 0x40 MLOAD PUSH4 0xD75C429 PUSH1 0xE3 SHL DUP2 MSTORE PUSH1 0x4 ADD PUSH1 0x40 MLOAD DUP1 SWAP2 SUB SWAP1 REVERT JUMPDEST PUSH2 0xD5F PUSH1 0x1 PUSH1 0x1 PUSH1 0xA0 SHL SUB PUSH32 0x0 AND DUP5 DUP5 PUSH2 0x12D7 JUMP JUMPDEST POP PUSH2 0xD69 PUSH1 0x1 DUP1 SSTORE JUMP JUMPDEST POP POP JUMP JUMPDEST PUSH2 0xD75 PUSH2 0x1224 JUMP JUMPDEST PUSH1 0x3 DUP2 SWAP1 SSTORE PUSH1 0x40 MLOAD DUP2 DUP2 MSTORE PUSH32 0xCC67306C5D19F79A73208A1270CA19EB367B4BD5258EAC096E974365D18E432C SWAP1 PUSH1 0x20 ADD PUSH2 0xA34 JUMP JUMPDEST PUSH2 0xDB2 PUSH2 0x127E JUMP JUMPDEST DUP1 PUSH1 0x0 SUB PUSH2 0xDD3 JUMPI PUSH1 0x40 MLOAD PUSH4 0x103BE3B PUSH1 0xE2 SHL DUP2 MSTORE PUSH1 0x4 ADD PUSH1 0x40 MLOAD DUP1 SWAP2 SUB SWAP1 REVERT JUMPDEST CALLER PUSH1 0x0 SWAP1 DUP2 MSTORE PUSH1 0x8 PUSH1 0x20 MSTORE PUSH1 0x40 SWAP1 KECCAK256 PUSH1 0x1 PUSH1 0x4 DUP3 ADD SLOAD PUSH1 0xFF AND PUSH1 0x3 DUP2 GT ISZERO PUSH2 0xDFD JUMPI PUSH2 0xDFD PUSH2 0x1664 JUMP JUMPDEST EQ PUSH2 0xE1B JUMPI PUSH1 0x40 MLOAD PUSH4 0x53670AFB PUSH1 0xE1 SHL DUP2 MSTORE PUSH1 0x4 ADD PUSH1 0x40 MLOAD DUP1 SWAP2 SUB SWAP1 REVERT JUMPDEST PUSH2 0xE50 PUSH1 0x1 PUSH1 0x1 PUSH1 0xA0 SHL SUB PUSH32 0x0 AND CALLER ADDRESS DUP6 PUSH2 0x133A JUMP JUMPDEST DUP2 DUP2 PUSH1 0x0 ADD PUSH1 0x0 DUP3 DUP3 SLOAD PUSH2 0xE64 SWAP2 SWAP1 PUSH2 0x17A7 JUMP JUMPDEST SWAP3 POP POP DUP2 SWAP1 SSTORE POP DUP2 PUSH1 0x6 PUSH1 0x0 DUP3 DUP3 SLOAD PUSH2 0xE7D SWAP2 SWAP1 PUSH2 0x17A7 JUMP JUMPDEST SWAP1 SWAP2 SSTORE POP POP DUP1 SLOAD PUSH1 0x40 MLOAD CALLER SWAP2 PUSH32 0xAC92C7D285D0079961F094FFAE48E3A77CD67AD29746583F9DC02F1D6CF1D8E1 SWAP2 PUSH2 0x84C SWAP2 DUP7 DUP3 MSTORE PUSH1 0x20 DUP3 ADD MSTORE PUSH1 0x40 ADD SWAP1 JUMP JUMPDEST PUSH2 0xEC5 PUSH2 0x1224 JUMP JUMPDEST PUSH1 0x1 PUSH1 0x1 PUSH1 0xA0 SHL SUB DUP2 AND PUSH2 0xF2F JUMPI PUSH1 0x40 MLOAD PUSH3 0x461BCD PUSH1 0xE5 SHL DUP2 MSTORE PUSH1 0x20 PUSH1 0x4 DUP3 ADD MSTORE PUSH1 0x26 PUSH1 0x24 DUP3 ADD MSTORE PUSH32 0x4F776E61626C653A206E6577206F776E657220697320746865207A65726F2061 PUSH1 0x44 DUP3 ADD MSTORE PUSH6 0x646472657373 PUSH1 0xD0 SHL PUSH1 0x64 DUP3 ADD MSTORE PUSH1 0x84 ADD JUMPDEST PUSH1 0x40 MLOAD DUP1 SWAP2 SUB SWAP1 REVERT JUMPDEST PUSH2 0x85E DUP2 PUSH2 0x1378 JUMP JUMPDEST PUSH1 0x60 PUSH1 0xA DUP1 SLOAD DUP1 PUSH1 0x20 MUL PUSH1 0x20 ADD PUSH1 0x40 MLOAD SWAP1 DUP2 ADD PUSH1 0x40 MSTORE DUP1 SWAP3 SWAP2 SWAP1 DUP2 DUP2 MSTORE PUSH1 0x20 ADD DUP3 DUP1 SLOAD DUP1 ISZERO PUSH2 0xF90 JUMPI PUSH1 0x20 MUL DUP3 ADD SWAP2 SWAP1 PUSH1 0x0 MSTORE PUSH1 0x20 PUSH1 0x0 KECCAK256 SWAP1 JUMPDEST DUP2 SLOAD PUSH1 0x1 PUSH1 0x1 PUSH1 0xA0 SHL SUB AND DUP2 MSTORE PUSH1 0x1 SWAP1 SWAP2 ADD SWAP1 PUSH1 0x20 ADD DUP1 DUP4 GT PUSH2 0xF72 JUMPI JUMPDEST POP POP POP POP POP SWAP1 POP SWAP1 JUMP JUMPDEST CALLER PUSH1 0x0 SWAP1 DUP2 MSTORE PUSH1 0x8 PUSH1 0x20 MSTORE PUSH1 0x40 SWAP1 KECCAK256 PUSH1 0x2 PUSH1 0x4 DUP3 ADD SLOAD PUSH1 0xFF AND PUSH1 0x3 DUP2 GT ISZERO PUSH2 0xFC4 JUMPI PUSH2 0xFC4 PUSH2 0x1664 JUMP JUMPDEST EQ PUSH2 0xFE2 JUMPI PUSH1 0x40 MLOAD PUSH4 0x6A0786D PUSH1 0xE5 SHL DUP2 MSTORE PUSH1 0x4 ADD PUSH1 0x40 MLOAD DUP1 SWAP2 SUB SWAP1 REVERT JUMPDEST PUSH1 0x4 DUP2 ADD DUP1 SLOAD PUSH1 0xFF NOT AND PUSH1 0x1 OR SWAP1 SSTORE PUSH1 0x0 PUSH1 0x3 DUP3 ADD DUP2 SWAP1 SSTORE PUSH1 0x40 MLOAD CALLER SWAP2 PUSH32 0x46550599FA62C9F16DC0CDC42CE629A5E19912D3F2596A092C8E7701B7200DA8 SWAP2 LOG2 POP JUMP JUMPDEST PUSH2 0x102D PUSH2 0x1224 JUMP JUMPDEST PUSH2 0x1035 PUSH2 0x127E JUMP JUMPDEST DUP2 PUSH1 0x0 SUB PUSH2 0x1056 JUMPI PUSH1 0x40 MLOAD PUSH4 0x103BE3B PUSH1 0xE2 SHL DUP2 MSTORE PUSH1 0x4 ADD PUSH1 0x40 MLOAD DUP1 SWAP2 SUB SWAP1 REVERT JUMPDEST PUSH1 0x1 PUSH1 0x1 PUSH1 0xA0 SHL SUB DUP4 AND PUSH1 0x0 SWAP1 DUP2 MSTORE PUSH1 0x8 PUSH1 0x20 MSTORE PUSH1 0x40 SWAP1 KECCAK256 PUSH1 0x1 PUSH1 0x4 DUP3 ADD SLOAD PUSH1 0xFF AND PUSH1 0x3 DUP2 GT ISZERO PUSH2 0x1089 JUMPI PUSH2 0x1089 PUSH2 0x1664 JUMP JUMPDEST EQ ISZERO DUP1 ISZERO PUSH2 0x10B0 JUMPI POP PUSH1 0x2 PUSH1 0x4 DUP3 ADD SLOAD PUSH1 0xFF AND PUSH1 0x3 DUP2 GT ISZERO PUSH2 0x10AD JUMPI PUSH2 0x10AD PUSH2 0x1664 JUMP JUMPDEST EQ ISZERO JUMPDEST ISZERO PUSH2 0x10CE JUMPI PUSH1 0x40 MLOAD PUSH4 0x59762CC5 PUSH1 0xE1 SHL DUP2 MSTORE PUSH1 0x4 ADD PUSH1 0x40 MLOAD DUP1 SWAP2 SUB SWAP1 REVERT JUMPDEST DUP1 SLOAD PUSH1 0x0 SWAP1 DUP5 GT PUSH2 0x10DF JUMPI DUP4 PUSH2 0x10E2 JUMP JUMPDEST DUP2 SLOAD JUMPDEST SWAP1 POP DUP1 DUP3 PUSH1 0x0 ADD PUSH1 0x0 DUP3 DUP3 SLOAD PUSH2 0x10F8 SWAP2 SWAP1 PUSH2 0x17C0 JUMP JUMPDEST SWAP3 POP POP DUP2 SWAP1 SSTORE POP DUP1 PUSH1 0x6 PUSH1 0x0 DUP3 DUP3 SLOAD PUSH2 0x1111 SWAP2 SWAP1 PUSH2 0x17C0 JUMP JUMPDEST SWAP1 SWAP2 SSTORE POP POP DUP2 SLOAD PUSH1 0x0 SUB PUSH2 0x1184 JUMPI PUSH1 0x1 PUSH1 0x5 PUSH1 0x0 DUP3 DUP3 SLOAD PUSH2 0x1132 SWAP2 SWAP1 PUSH2 0x17C0 JUMP JUMPDEST SWAP1 SWAP2 SSTORE POP POP PUSH1 0x1 DUP3 ADD SLOAD ISZERO PUSH2 0x1164 JUMPI DUP2 PUSH1 0x1 ADD SLOAD PUSH1 0x7 PUSH1 0x0 DUP3 DUP3 SLOAD PUSH2 0x1157 SWAP2 SWAP1 PUSH2 0x17C0 JUMP JUMPDEST SWAP1 SWAP2 SSTORE POP POP PUSH1 0x0 PUSH1 0x1 DUP4 ADD SSTORE JUMPDEST PUSH1 0x4 DUP3 ADD DUP1 SLOAD PUSH1 0xFF NOT AND PUSH1 0x3 SWAP1 DUP2 OR SWAP1 SWAP2 SSTORE PUSH1 0x0 SWAP1 DUP4 ADD DUP2 SWAP1 SSTORE PUSH1 0x2 DUP4 ADD SSTORE JUMPDEST PUSH1 0x1 PUSH1 0x1 PUSH1 0xA0 SHL SUB DUP4 AND ISZERO PUSH2 0x11C7 JUMPI PUSH2 0x11C7 PUSH1 0x1 PUSH1 0x1 PUSH1 0xA0 SHL SUB PUSH32 0x0 AND DUP5 DUP4 PUSH2 0x12D7 JUMP JUMPDEST DUP3 PUSH1 0x1 PUSH1 0x1 PUSH1 0xA0 SHL SUB AND DUP6 PUSH1 0x1 PUSH1 0x1 PUSH1 0xA0 SHL SUB AND PUSH32 0xA2CE4664DF80A3D0D2F08C7D38B7A94100CCCCF1882900A343067BB266ED63C4 DUP4 PUSH1 0x40 MLOAD PUSH2 0x120C SWAP2 DUP2 MSTORE PUSH1 0x20 ADD SWAP1 JUMP JUMPDEST PUSH1 0x40 MLOAD DUP1 SWAP2 SUB SWAP1 LOG3 POP POP PUSH2 0x121F PUSH1 0x1 DUP1 SSTORE JUMP JUMPDEST POP POP POP JUMP JUMPDEST PUSH1 0x0 SLOAD PUSH1 0x1 PUSH1 0x1 PUSH1 0xA0 SHL SUB AND CALLER EQ PUSH2 0x61D JUMPI PUSH1 0x40 MLOAD PUSH3 0x461BCD PUSH1 0xE5 SHL DUP2 MSTORE PUSH1 0x20 PUSH1 0x4 DUP3 ADD DUP2 SWAP1 MSTORE PUSH1 0x24 DUP3 ADD MSTORE PUSH32 0x4F776E61626C653A2063616C6C6572206973206E6F7420746865206F776E6572 PUSH1 0x44 DUP3 ADD MSTORE PUSH1 0x64 ADD PUSH2 0xF26 JUMP JUMPDEST PUSH1 0x2 PUSH1 0x1 SLOAD SUB PUSH2 0x12D0 JUMPI PUSH1 0x40 MLOAD PUSH3 0x461BCD PUSH1 0xE5 SHL DUP2 MSTORE PUSH1 0x20 PUSH1 0x4 DUP3 ADD MSTORE PUSH1 0x1F PUSH1 0x24 DUP3 ADD MSTORE PUSH32 0x5265656E7472616E637947756172643A207265656E7472616E742063616C6C00 PUSH1 0x44 DUP3 ADD MSTORE PUSH1 0x64 ADD PUSH2 0xF26 JUMP JUMPDEST PUSH1 0x2 PUSH1 0x1 SSTORE JUMP JUMPDEST PUSH1 0x40 MLOAD PUSH1 0x1 PUSH1 0x1 PUSH1 0xA0 SHL SUB DUP4 AND PUSH1 0x24 DUP3 ADD MSTORE PUSH1 0x44 DUP2 ADD DUP3 SWAP1 MSTORE PUSH2 0x121F SWAP1 DUP5 SWAP1 PUSH4 0xA9059CBB PUSH1 0xE0 SHL SWAP1 PUSH1 0x64 ADD JUMPDEST PUSH1 0x40 DUP1 MLOAD PUSH1 0x1F NOT DUP2 DUP5 SUB ADD DUP2 MSTORE SWAP2 SWAP1 MSTORE PUSH1 0x20 DUP2 ADD DUP1 MLOAD PUSH1 0x1 PUSH1 0x1 PUSH1 0xE0 SHL SUB AND PUSH1 0x1 PUSH1 0x1 PUSH1 0xE0 SHL SUB NOT SWAP1 SWAP4 AND SWAP3 SWAP1 SWAP3 OR SWAP1 SWAP2 MSTORE PUSH2 0x13C8 JUMP JUMPDEST PUSH1 0x40 MLOAD PUSH1 0x1 PUSH1 0x1 PUSH1 0xA0 SHL SUB DUP1 DUP6 AND PUSH1 0x24 DUP4 ADD MSTORE DUP4 AND PUSH1 0x44 DUP3 ADD MSTORE PUSH1 0x64 DUP2 ADD DUP3 SWAP1 MSTORE PUSH2 0x1372 SWAP1 DUP6 SWAP1 PUSH4 0x23B872DD PUSH1 0xE0 SHL SWAP1 PUSH1 0x84 ADD PUSH2 0x1303 JUMP JUMPDEST POP POP POP POP JUMP JUMPDEST PUSH1 0x0 DUP1 SLOAD PUSH1 0x1 PUSH1 0x1 PUSH1 0xA0 SHL SUB DUP4 DUP2 AND PUSH1 0x1 PUSH1 0x1 PUSH1 0xA0 SHL SUB NOT DUP4 AND DUP2 OR DUP5 SSTORE PUSH1 0x40 MLOAD SWAP2 SWAP1 SWAP3 AND SWAP3 DUP4 SWAP2 PUSH32 0x8BE0079C531659141344CD1FD0A4F28419497F9722A3DAAFE3B4186F6B6457E0 SWAP2 SWAP1 LOG3 POP POP JUMP JUMPDEST PUSH1 0x0 PUSH2 0x141D DUP3 PUSH1 0x40 MLOAD DUP1 PUSH1 0x40 ADD PUSH1 0x40 MSTORE DUP1 PUSH1 0x20 DUP2 MSTORE PUSH1 0x20 ADD PUSH32 0x5361666545524332303A206C6F772D6C6576656C2063616C6C206661696C6564 DUP2 MSTORE POP DUP6 PUSH1 0x1 PUSH1 0x1 PUSH1 0xA0 SHL SUB AND PUSH2 0x149D SWAP1 SWAP3 SWAP2 SWAP1 PUSH4 0xFFFFFFFF AND JUMP JUMPDEST SWAP1 POP DUP1 MLOAD PUSH1 0x0 EQ DUP1 PUSH2 0x143E JUMPI POP DUP1 DUP1 PUSH1 0x20 ADD SWAP1 MLOAD DUP2 ADD SWAP1 PUSH2 0x143E SWAP2 SWAP1 PUSH2 0x17EC JUMP JUMPDEST PUSH2 0x121F JUMPI PUSH1 0x40 MLOAD PUSH3 0x461BCD PUSH1 0xE5 SHL DUP2 MSTORE PUSH1 0x20 PUSH1 0x4 DUP3 ADD MSTORE PUSH1 0x2A PUSH1 0x24 DUP3 ADD MSTORE PUSH32 0x5361666545524332303A204552433230206F7065726174696F6E20646964206E PUSH1 0x44 DUP3 ADD MSTORE PUSH10 0x1BDD081CDD58D8D95959 PUSH1 0xB2 SHL PUSH1 0x64 DUP3 ADD MSTORE PUSH1 0x84 ADD PUSH2 0xF26 JUMP JUMPDEST PUSH1 0x60 PUSH2 0x14AC DUP5 DUP5 PUSH1 0x0 DUP6 PUSH2 0x14B4 JUMP JUMPDEST SWAP5 SWAP4 POP POP POP POP JUMP JUMPDEST PUSH1 0x60 DUP3 SELFBALANCE LT ISZERO PUSH2 0x1515 JUMPI PUSH1 0x40 MLOAD PUSH3 0x461BCD PUSH1 0xE5 SHL DUP2 MSTORE PUSH1 0x20 PUSH1 0x4 DUP3 ADD MSTORE PUSH1 0x26 PUSH1 0x24 DUP3 ADD MSTORE PUSH32 0x416464726573733A20696E73756666696369656E742062616C616E636520666F PUSH1 0x44 DUP3 ADD MSTORE PUSH6 0x1C8818D85B1B PUSH1 0xD2 SHL PUSH1 0x64 DUP3 ADD MSTORE PUSH1 0x84 ADD PUSH2 0xF26 JUMP JUMPDEST PUSH1 0x0 DUP1 DUP7 PUSH1 0x1 PUSH1 0x1 PUSH1 0xA0 SHL SUB AND DUP6 DUP8 PUSH1 0x40 MLOAD PUSH2 0x1531 SWAP2 SWAP1 PUSH2 0x1832 JUMP JUMPDEST PUSH1 0x0 PUSH1 0x40 MLOAD DUP1 DUP4 SUB DUP2 DUP6 DUP8 GAS CALL SWAP3 POP POP POP RETURNDATASIZE DUP1 PUSH1 0x0 DUP2 EQ PUSH2 0x156E JUMPI PUSH1 0x40 MLOAD SWAP2 POP PUSH1 0x1F NOT PUSH1 0x3F RETURNDATASIZE ADD AND DUP3 ADD PUSH1 0x40 MSTORE RETURNDATASIZE DUP3 MSTORE RETURNDATASIZE PUSH1 0x0 PUSH1 0x20 DUP5 ADD RETURNDATACOPY PUSH2 0x1573 JUMP JUMPDEST PUSH1 0x60 SWAP2 POP JUMPDEST POP SWAP2 POP SWAP2 POP PUSH2 0x1584 DUP8 DUP4 DUP4 DUP8 PUSH2 0x158F JUMP JUMPDEST SWAP8 SWAP7 POP POP POP POP POP POP POP JUMP JUMPDEST PUSH1 0x60 DUP4 ISZERO PUSH2 0x15FE JUMPI DUP3 MLOAD PUSH1 0x0 SUB PUSH2 0x15F7 JUMPI PUSH1 0x1 PUSH1 0x1 PUSH1 0xA0 SHL SUB DUP6 AND EXTCODESIZE PUSH2 0x15F7 JUMPI PUSH1 0x40 MLOAD PUSH3 0x461BCD PUSH1 0xE5 SHL DUP2 MSTORE PUSH1 0x20 PUSH1 0x4 DUP3 ADD MSTORE PUSH1 0x1D PUSH1 0x24 DUP3 ADD MSTORE PUSH32 0x416464726573733A2063616C6C20746F206E6F6E2D636F6E7472616374000000 PUSH1 0x44 DUP3 ADD MSTORE PUSH1 0x64 ADD PUSH2 0xF26 JUMP JUMPDEST POP DUP2 PUSH2 0x14AC JUMP JUMPDEST PUSH2 0x14AC DUP4 DUP4 DUP2 MLOAD ISZERO PUSH2 0x1613 JUMPI DUP2 MLOAD DUP1 DUP4 PUSH1 0x20 ADD REVERT JUMPDEST DUP1 PUSH1 0x40 MLOAD PUSH3 0x461BCD PUSH1 0xE5 SHL DUP2 MSTORE PUSH1 0x4 ADD PUSH2 0xF26 SWAP2 SWAP1 PUSH2 0x184E JUMP JUMPDEST DUP1 CALLDATALOAD PUSH1 0x1 PUSH1 0x1 PUSH1 0xA0 SHL SUB DUP2 AND DUP2 EQ PUSH2 0x1644 JUMPI PUSH1 0x0 DUP1 REVERT JUMPDEST SWAP2 SWAP1 POP JUMP JUMPDEST PUSH1 0x0 PUSH1 0x20 DUP3 DUP5 SUB SLT ISZERO PUSH2 0x165B JUMPI PUSH1 0x0 DUP1 REVERT JUMPDEST PUSH2 0x66F DUP3 PUSH2 0x162D JUMP JUMPDEST PUSH4 0x4E487B71 PUSH1 0xE0 SHL PUSH1 0x0 MSTORE PUSH1 0x21 PUSH1 0x4 MSTORE PUSH1 0x24 PUSH1 0x0 REVERT JUMPDEST PUSH1 0x0 PUSH1 0xA0 DUP3 ADD SWAP1 POP DUP7 DUP3 MSTORE DUP6 PUSH1 0x20 DUP4 ADD MSTORE DUP5 PUSH1 0x40 DUP4 ADD MSTORE DUP4 PUSH1 0x60 DUP4 ADD MSTORE PUSH1 0x4 DUP4 LT PUSH2 0x16B5 JUMPI PUSH4 0x4E487B71 PUSH1 0xE0 SHL PUSH1 0x0 MSTORE PUSH1 0x21 PUSH1 0x4 MSTORE PUSH1 0x24 PUSH1 0x0 REVERT JUMPDEST DUP3 PUSH1 0x80 DUP4 ADD MSTORE SWAP7 SWAP6 POP POP POP POP POP POP JUMP JUMPDEST PUSH1 0x0 DUP1 PUSH1 0x40 DUP4 DUP6 SUB SLT ISZERO PUSH2 0x16D8 JUMPI PUSH1 0x0 DUP1 REVERT JUMPDEST PUSH2 0x16E1 DUP4 PUSH2 0x162D JUMP JUMPDEST SWAP5 PUSH1 0x20 SWAP4 SWAP1 SWAP4 ADD CALLDATALOAD SWAP4 POP POP POP JUMP JUMPDEST PUSH1 0x0 PUSH1 0x20 DUP3 DUP5 SUB SLT ISZERO PUSH2 0x1701 JUMPI PUSH1 0x0 DUP1 REVERT JUMPDEST POP CALLDATALOAD SWAP2 SWAP1 POP JUMP JUMPDEST PUSH1 0x20 DUP1 DUP3 MSTORE DUP3 MLOAD DUP3 DUP3 ADD DUP2 SWAP1 MSTORE PUSH1 0x0 SWAP2 SWAP1 DUP5 DUP3 ADD SWAP1 PUSH1 0x40 DUP6 ADD SWAP1 DUP5 JUMPDEST DUP2 DUP2 LT ISZERO PUSH2 0x1749 JUMPI DUP4 MLOAD PUSH1 0x1 PUSH1 0x1 PUSH1 0xA0 SHL SUB AND DUP4 MSTORE SWAP3 DUP5 ADD SWAP3 SWAP2 DUP5 ADD SWAP2 PUSH1 0x1 ADD PUSH2 0x1724 JUMP JUMPDEST POP SWAP1 SWAP7 SWAP6 POP POP POP POP POP POP JUMP JUMPDEST PUSH1 0x0 DUP1 PUSH1 0x0 PUSH1 0x60 DUP5 DUP7 SUB SLT ISZERO PUSH2 0x176A JUMPI PUSH1 0x0 DUP1 REVERT JUMPDEST PUSH2 0x1773 DUP5 PUSH2 0x162D JUMP JUMPDEST SWAP3 POP PUSH1 0x20 DUP5 ADD CALLDATALOAD SWAP2 POP PUSH2 0x1788 PUSH1 0x40 DUP6 ADD PUSH2 0x162D JUMP JUMPDEST SWAP1 POP SWAP3 POP SWAP3 POP SWAP3 JUMP JUMPDEST PUSH4 0x4E487B71 PUSH1 0xE0 SHL PUSH1 0x0 MSTORE PUSH1 0x11 PUSH1 0x4 MSTORE PUSH1 0x24 PUSH1 0x0 REVERT JUMPDEST DUP1 DUP3 ADD DUP1 DUP3 GT ISZERO PUSH2 0x17BA JUMPI PUSH2 0x17BA PUSH2 0x1791 JUMP JUMPDEST SWAP3 SWAP2 POP POP JUMP JUMPDEST DUP2 DUP2 SUB DUP2 DUP2 GT ISZERO PUSH2 0x17BA JUMPI PUSH2 0x17BA PUSH2 0x1791 JUMP JUMPDEST PUSH1 0x0 PUSH1 0x20 DUP3 DUP5 SUB SLT ISZERO PUSH2 0x17E5 JUMPI PUSH1 0x0 DUP1 REVERT JUMPDEST POP MLOAD SWAP2 SWAP1 POP JUMP JUMPDEST PUSH1 0x0 PUSH1 0x20 DUP3 DUP5 SUB SLT ISZERO PUSH2 0x17FE JUMPI PUSH1 0x0 DUP1 REVERT JUMPDEST DUP2 MLOAD DUP1 ISZERO ISZERO DUP2 EQ PUSH2 0x66F JUMPI PUSH1 0x0 DUP1 REVERT JUMPDEST PUSH1 0x0 JUMPDEST DUP4 DUP2 LT ISZERO PUSH2 0x1829 JUMPI DUP2 DUP2 ADD MLOAD DUP4 DUP3 ADD MSTORE PUSH1 0x20 ADD PUSH2 0x1811 JUMP JUMPDEST POP POP PUSH1 0x0 SWAP2 ADD MSTORE JUMP JUMPDEST PUSH1 0x0 DUP3 MLOAD PUSH2 0x1844 DUP2 DUP5 PUSH1 0x20 DUP8 ADD PUSH2 0x180E JUMP JUMPDEST SWAP2 SWAP1 SWAP2 ADD SWAP3 SWAP2 POP POP JUMP JUMPDEST PUSH1 0x20 DUP2 MSTORE PUSH1 0x0 DUP3 MLOAD DUP1 PUSH1 0x20 DUP5 ADD MSTORE PUSH2 0x186D DUP2 PUSH1 0x40 DUP6 ADD PUSH1 0x20 DUP8 ADD PUSH2 0x180E JUMP JUMPDEST PUSH1 0x1F ADD PUSH1 0x1F NOT AND SWAP2 SWAP1 SWAP2 ADD PUSH1 0x40 ADD SWAP3 SWAP2 POP POP JUMP INVALID LOG2 PUSH5 0x6970667358 0x22 SLT KECCAK256 DUP11 SWAP8 CALLVALUE DUP4 0xB8 SGT AND CALLDATASIZE SWAP13 ADDMOD PUSH12 0xF75A14FCE6588383B67588BD 0xAF 0x4E PUSH24 0x8AAE413BAD8364736F6C6343000813003300000000000000 "},"methodIdentifiers":{"activeValidatorCount()":"2340e8d3","allocateRewards(address,uint256)":"1aa7e577","cancelExit()":"fdf364e4","claimRewards()":"372500ab","completeExit()":"b01eb660","fundRewards(uint256)":"93707a19","getValidator(address)":"1904bb2e","getValidatorAddresses()":"f74e921f","increaseStake(uint256)":"eedad66b","isValidatorActive(address)":"42ad55ac","lockupPeriod()":"ee947a7c","maxValidators()":"08ac5256","minStake()":"375b3c0a","owner()":"8da5cb5b","registerValidator(uint256)":"679cdb06","renounceOwnership()":"715018a6","requestExit()":"7f8e3b4e","rewardPoolBalance()":"7a5c08ae","setLockupPeriod(uint256)":"c771c390","setMaxValidators(uint256)":"9bb2ea5a","setMinStake(uint256)":"8c80fd90","slashValidator(address,uint256,address)":"fe53259a","stakingToken()":"72f702f3","totalActiveStake()":"28f73148","totalPendingRewards()":"ec1371f2","transferOwnership(address)":"f2fde38b","withdrawExcessRewards(address,uint256)":"b7587941"}}}}}