{
  "_format": "hh-sol-artifact-1",
  "contractName": "ProofOfStakeValidatorManager",
  "sourceName": "contracts/ProofOfStakeValidatorManager.sol",
  "abi": [
    {
      "inputs": [
        {
          "internalType": "contract IERC20",
          "name": "_stakingToken",
          "type": "address"
        },
        {
          "internalType": "uint256",
          "name": "_minStake",
          "type": "uint256"
        },
        {
          "internalType": "uint256",
          "name": "_lockupPeriod",
          "type": "uint256"
        },
        {
          "internalType": "uint256",
          "name": "_maxValidators",
          "type": "uint256"
        }
      ],
      "stateMutability": "nonpayable",
      "type": "constructor"
    },
    {
      "inputs": [],
      "name": "AlreadyValidator",
      "type": "error"
    },
    {
      "inputs": [],
      "name": "ExitNotRequested",
      "type": "error"
    },
    {
      "inputs": [],
      "name": "InsufficientRewardLiquidity",
      "type": "error"
    },
    {
      "inputs": [],
      "name": "InvalidConfiguration",
      "type": "error"
    },
    {
      "inputs": [],
      "name": "InvalidStakeAmount",
      "type": "error"
    },
    {
      "inputs": [],
      "name": "LockupPeriodNotElapsed",
      "type": "error"
    },
    {
      "inputs": [],
      "name": "MaxValidatorsReached",
      "type": "error"
    },
    {
      "inputs": [],
      "name": "NothingToClaim",
      "type": "error"
    },
    {
      "inputs": [],
      "name": "ValidatorNotActive",
      "type": "error"
    },
    {
      "inputs": [],
      "name": "ValidatorNotFound",
      "type": "error"
    },
    {
      "inputs": [],
      "name": "ValidatorNotSlashable",
      "type": "error"
    },
    {
      "anonymous": false,
      "inputs": [
        {
          "indexed": false,
          "internalType": "uint256",
          "name": "newLockupPeriod",
          "type": "uint256"
        }
      ],
      "name": "LockupPeriodUpdated",
      "type": "event"
    },
    {
      "anonymous": false,
      "inputs": [
        {
          "indexed": false,
          "internalType": "uint256",
          "name": "newMaxValidators",
          "type": "uint256"
        }
      ],
      "name": "MaxValidatorsUpdated",
      "type": "event"
    },
    {
      "anonymous": false,
      "inputs": [
        {
          "indexed": false,
          "internalType": "uint256",
          "name": "newMinStake",
          "type": "uint256"
        }
      ],
      "name": "MinStakeUpdated",
      "type": "event"
    },
    {
      "anonymous": false,
      "inputs": [
        {
          "indexed": true,
          "internalType": "address",
          "name": "previousOwner",
          "type": "address"
        },
        {
          "indexed": true,
          "internalType": "address",
          "name": "newOwner",
          "type": "address"
        }
      ],
      "name": "OwnershipTransferred",
      "type": "event"
    },
    {
      "anonymous": false,
      "inputs": [
        {
          "indexed": true,
          "internalType": "address",
          "name": "validator",
          "type": "address"
        },
        {
          "indexed": false,
          "internalType": "uint256",
          "name": "amount",
          "type": "uint256"
        }
      ],
      "name": "RewardsAllocated",
      "type": "event"
    },
    {
      "anonymous": false,
      "inputs": [
        {
          "indexed": true,
          "internalType": "address",
          "name": "validator",
          "type": "address"
        },
        {
          "indexed": false,
          "internalType": "uint256",
          "name": "amount",
          "type": "uint256"
        }
      ],
      "name": "RewardsClaimed",
      "type": "event"
    },
    {
      "anonymous": false,
      "inputs": [
        {
          "indexed": true,
          "internalType": "address",
          "name": "funder",
          "type": "address"
        },
        {
          "indexed": false,
          "internalType": "uint256",
          "name": "amount",
          "type": "uint256"
        }
      ],
      "name": "RewardsFunded",
      "type": "event"
    },
    {
      "anonymous": false,
      "inputs": [
        {
          "indexed": true,
          "internalType": "address",
          "name": "validator",
          "type": "address"
        }
      ],
      "name": "ValidatorExitCancelled",
      "type": "event"
    },
    {
      "anonymous": false,
      "inputs": [
        {
          "indexed": true,
          "internalType": "address",
          "name": "validator",
          "type": "address"
        },
        {
          "indexed": false,
          "internalType": "uint256",
          "name": "returnedStake",
          "type": "uint256"
        },
        {
          "indexed": false,
          "internalType": "uint256",
          "name": "paidRewards",
          "type": "uint256"
        }
      ],
      "name": "ValidatorExitCompleted",
      "type": "event"
    },
    {
      "anonymous": false,
      "inputs": [
        {
          "indexed": true,
          "internalType": "address",
          "name": "validator",
          "type": "address"
        },
        {
          "indexed": false,
          "internalType": "uint256",
          "name": "exitAllowedAfter",
          "type": "uint256"
        }
      ],
      "name": "ValidatorExitRequested",
      "type": "event"
    },
    {
      "anonymous": false,
      "inputs": [
        {
          "indexed": true,
          "internalType": "address",
          "name": "validator",
          "type": "address"
        },
        {
          "indexed": false,
          "internalType": "uint256",
          "name": "amount",
          "type": "uint256"
        },
        {
          "indexed": false,
          "internalType": "uint256",
          "name": "activationTime",
          "type": "uint256"
        }
      ],
      "name": "ValidatorRegistered",
      "type": "event"
    },
    {
      "anonymous": false,
      "inputs": [
        {
          "indexed": true,
          "internalType": "address",
          "name": "validator",
          "type": "address"
        },
        {
          "indexed": false,
          "internalType": "uint256",
          "name": "penaltyAmount",
          "type": "uint256"
        },
        {
          "indexed": true,
          "internalType": "address",
          "name": "recipient",
          "type": "address"
        }
      ],
      "name": "ValidatorSlashed",
      "type": "event"
    },
    {
      "anonymous": false,
      "inputs": [
        {
          "indexed": true,
          "internalType": "address",
          "name": "validator",
          "type": "address"
        },
        {
          "indexed": false,
          "internalType": "uint256",
          "name": "additionalStake",
          "type": "uint256"
        },
        {
          "indexed": false,
          "internalType": "uint256",
          "name": "newTotalStake",
          "type": "uint256"
        }
      ],
      "name": "ValidatorStakeIncreased",
      "type": "event"
    },
    {
      "inputs": [],
      "name": "activeValidatorCount",
      "outputs": [
        {
          "internalType": "uint256",
          "name": "",
          "type": "uint256"
        }
      ],
      "stateMutability": "view",
      "type": "function"
    },
    {
      "inputs": [
        {
          "internalType": "address",
          "name": "validatorAddress",
          "type": "address"
        },
        {
          "internalType": "uint256",
          "name": "amount",
          "type": "uint256"
        }
      ],
      "name": "allocateRewards",
      "outputs": [],
      "stateMutability": "nonpayable",
      "type": "function"
    },
    {
      "inputs": [],
      "name": "cancelExit",
      "outputs": [],
      "stateMutability": "nonpayable",
      "type": "function"
    },
    {
      "inputs": [],
      "name": "claimRewards",
      "outputs": [],
      "stateMutability": "nonpayable",
      "type": "function"
    },
    {
      "inputs": [],
      "name": "completeExit",
      "outputs": [],
      "stateMutability": "nonpayable",
      "type": "function"
    },
    {
      "inputs": [
        {
          "internalType": "uint256",
          "name": "amount",
          "type": "uint256"
        }
      ],
      "name": "fundRewards",
      "outputs": [],
      "stateMutability": "nonpayable",
      "type": "function"
    },
    {
      "inputs": [
        {
          "internalType": "address",
          "name": "validatorAddress",
          "type": "address"
        }
      ],
      "name": "getValidator",
      "outputs": [
        {
          "internalType": "uint256",
          "name": "stakedAmount",
          "type": "uint256"
        },
        {
          "internalType": "uint256",
          "name": "pendingRewards",
          "type": "uint256"
        },
        {
          "internalType": "uint256",
          "name": "activationTime",
          "type": "uint256"
        },
        {
          "internalType": "uint256",
          "name": "exitAllowedAfter",
          "type": "uint256"
        },
        {
          "internalType": "enum ProofOfStakeValidatorManager.ValidatorStatus",
          "name": "status",
          "type": "uint8"
        }
      ],
      "stateMutability": "view",
      "type": "function"
    },
    {
      "inputs": [],
      "name": "getValidatorAddresses",
      "outputs": [
        {
          "internalType": "address[]",
          "name": "",
          "type": "address[]"
        }
      ],
      "stateMutability": "view",
      "type": "function"
    },
    {
      "inputs": [
        {
          "internalType": "uint256",
          "name": "amount",
          "type": "uint256"
        }
      ],
      "name": "increaseStake",
      "outputs": [],
      "stateMutability": "nonpayable",
      "type": "function"
    },
    {
      "inputs": [
        {
          "internalType": "address",
          "name": "validatorAddress",
          "type": "address"
        }
      ],
      "name": "isValidatorActive",
      "outputs": [
        {
          "internalType": "bool",
          "name": "",
          "type": "bool"
        }
      ],
      "stateMutability": "view",
      "type": "function"
    },
    {
      "inputs": [],
      "name": "lockupPeriod",
      "outputs": [
        {
          "internalType": "uint256",
          "name": "",
          "type": "uint256"
        }
      ],
      "stateMutability": "view",
      "type": "function"
    },
    {
      "inputs": [],
      "name": "maxValidators",
      "outputs": [
        {
          "internalType": "uint256",
          "name": "",
          "type": "uint256"
        }
      ],
      "stateMutability": "view",
      "type": "function"
    },
    {
      "inputs": [],
      "name": "minStake",
      "outputs": [
        {
          "internalType": "uint256",
          "name": "",
          "type": "uint256"
        }
      ],
      "stateMutability": "view",
      "type": "function"
    },
    {
      "inputs": [],
      "name": "owner",
      "outputs": [
        {
          "internalType": "address",
          "name": "",
          "type": "address"
        }
      ],
      "stateMutability": "view",
      "type": "function"
    },
    {
      "inputs": [
        {
          "internalType": "uint256",
          "name": "amount",
          "type": "uint256"
        }
      ],
      "name": "registerValidator",
      "outputs": [],
      "stateMutability": "nonpayable",
      "type": "function"
    },
    {
      "inputs": [],
      "name": "renounceOwnership",
      "outputs": [],
      "stateMutability": "nonpayable",
      "type": "function"
    },
    {
      "inputs": [],
      "name": "requestExit",
      "outputs": [],
      "stateMutability": "nonpayable",
      "type": "function"
    },
    {
      "inputs": [],
      "name": "rewardPoolBalance",
      "outputs": [
        {
          "internalType": "uint256",
          "name": "",
          "type": "uint256"
        }
      ],
      "stateMutability": "view",
      "type": "function"
    },
    {
      "inputs": [
        {
          "internalType": "uint256",
          "name": "newLockupPeriod",
          "type": "uint256"
        }
      ],
      "name": "setLockupPeriod",
      "outputs": [],
      "stateMutability": "nonpayable",
      "type": "function"
    },
    {
      "inputs": [
        {
          "internalType": "uint256",
          "name": "newMaxValidators",
          "type": "uint256"
        }
      ],
      "name": "setMaxValidators",
      "outputs": [],
      "stateMutability": "nonpayable",
      "type": "function"
    },
    {
      "inputs": [
        {
          "internalType": "uint256",
          "name": "newMinStake",
          "type": "uint256"
        }
      ],
      "name": "setMinStake",
      "outputs": [],
      "stateMutability": "nonpayable",
      "type": "function"
    },
    {
      "inputs": [
        {
          "internalType": "address",
          "name": "validatorAddress",
          "type": "address"
        },
        {
          "internalType": "uint256",
          "name": "amount",
          "type": "uint256"
        },
        {
          "internalType": "address",
          "name": "recipient",
          "type": "address"
        }
      ],
      "name": "slashValidator",
      "outputs": [],
      "stateMutability": "nonpayable",
      "type": "function"
    },
    {
      "inputs": [],
      "name": "stakingToken",
      "outputs": [
        {
          "internalType": "contract IERC20",
          "name": "",
          "type": "address"
        }
      ],
      "stateMutability": "view",
      "type": "function"
    },
    {
      "inputs": [],
      "name": "totalActiveStake",
      "outputs": [
        {
          "internalType": "uint256",
          "name": "",
          "type": "uint256"
        }
      ],
      "stateMutability": "view",
      "type": "function"
    },
    {
      "inputs": [],
      "name": "totalPendingRewards",
      "outputs": [
        {
          "internalType": "uint256",
          "name": "",
          "type": "uint256"
        }
      ],
      "stateMutability": "view",
      "type": "function"
    },
    {
      "inputs": [
        {
          "internalType": "address",
          "name": "newOwner",
          "type": "address"
        }
      ],
      "name": "transferOwnership",
      "outputs": [],
      "stateMutability": "nonpayable",
      "type": "function"
    },
    {
      "inputs": [
        {
          "internalType": "address",
          "name": "recipient",
          "type": "address"
        },
        {
          "internalType": "uint256",
          "name": "amount",
          "type": "uint256"
        }
      ],
      "name": "withdrawExcessRewards",
      "outputs": [],
      "stateMutability": "nonpayable",
      "type": "function"
    }
  ],
  "bytecode": "0x60a06040523480156200001157600080fd5b5060405162001a4938038062001a498339810160408190526200003491620000f1565b6200003f33620000a1565b600180556001600160a01b038416158062000058575082155b8062000062575080155b15620000815760405163c52a9bd360e01b815260040160405180910390fd5b6001600160a01b039093166080526002919091556003556004556200013e565b600080546001600160a01b038381166001600160a01b0319831681178455604051919092169283917f8be0079c531659141344cd1fd0a4f28419497f9722a3daafe3b4186f6b6457e09190a35050565b600080600080608085870312156200010857600080fd5b84516001600160a01b03811681146200012057600080fd5b60208601516040870151606090970151919890975090945092505050565b6080516118b762000192600039600081816102a2015281816105b6015281816107190152818161089501528181610a7501528181610c4e01528181610d3801528181610e2801526111a001526118b76000f3fe608060405234801561001057600080fd5b50600436106101a95760003560e01c80638c80fd90116100f9578063ec1371f211610097578063f2fde38b11610071578063f2fde38b14610389578063f74e921f1461039c578063fdf364e4146103b1578063fe53259a146103b957600080fd5b8063ec1371f214610364578063ee947a7c1461036d578063eedad66b1461037657600080fd5b80639bb2ea5a116100d35780639bb2ea5a14610323578063b01eb66014610336578063b75879411461033e578063c771c3901461035157600080fd5b80638c80fd90146102ec5780638da5cb5b146102ff57806393707a191461031057600080fd5b8063375b3c0a11610166578063715018a611610140578063715018a61461029557806372f702f31461029d5780637a5c08ae146102dc5780637f8e3b4e146102e457600080fd5b8063375b3c0a1461025657806342ad55ac1461025f578063679cdb061461028257600080fd5b806308ac5256146101ae5780631904bb2e146101ca5780631aa7e577146102275780632340e8d31461023c57806328f7314814610245578063372500ab1461024e575b600080fd5b6101b760045481565b6040519081526020015b60405180910390f35b6102166101d8366004611649565b6001600160a01b031660009081526008602052604090208054600182015460028301546003840154600490940154929491939092909160ff90911690565b6040516101c195949392919061167a565b61023a6102353660046116c5565b6103cc565b005b6101b760055481565b6101b760065481565b61023a610510565b6101b760025481565b61027261026d366004611649565b61061f565b60405190151581526020016101c1565b61023a6102903660046116ef565b610676565b61023a610861565b6102c47f000000000000000000000000000000000000000000000000000000000000000081565b6040516001600160a01b0390911681526020016101c1565b6101b7610873565b61023a610937565b61023a6102fa3660046116ef565b6109da565b6000546001600160a01b03166102c4565b61023a61031e3660046116ef565b610a3f565b61023a6103313660046116ef565b610adb565b61023a610b44565b61023a61034c3660046116c5565b610cbc565b61023a61035f3660046116ef565b610d6d565b6101b760075481565b6101b760035481565b61023a6103843660046116ef565b610daa565b61023a610397366004611649565b610ebd565b6103a4610f38565b6040516101c19190611708565b61023a610f9a565b61023a6103c7366004611755565b611025565b6103d4611224565b806000036103f557604051630103be3b60e21b815260040160405180910390fd5b6001600160a01b03821660009081526008602052604090206001600482015460ff16600381111561042857610428611664565b1415801561044f57506002600482015460ff16600381111561044c5761044c611664565b14155b1561046d5760405163580e542f60e01b815260040160405180910390fd5b6000610477610873565b90508281101561049a57604051630d75c42960e31b815260040160405180910390fd5b828260010160008282546104ae91906117a7565b9250508190555082600760008282546104c791906117a7565b90915550506040518381526001600160a01b038516907f560ef4f9524af91c8f006852a8707c3f256c238779f8cc088bbe202bb82e632e9060200160405180910390a250505050565b61051861127e565b3360009081526008602052604090206001600482015460ff16600381111561054257610542611664565b14610560576040516353670afb60e11b815260040160405180910390fd5b60018101546000819003610587576040516312d37ee560e31b815260040160405180910390fd5b6000826001018190555080600760008282546105a391906117c0565b909155506105dd90506001600160a01b037f00000000000000000000000000000000000000000000000000000000000000001633836112d7565b60405181815233907ffc30cddea38e2bf4d6ea7d3f9ed3b6ad7f176419f4963bd81318067a4aee73fe9060200160405180910390a2505061061d60018055565b565b6001600160a01b03811660009081526008602052604081206004015460ff16600181600381111561065257610652611664565b148061066f5750600281600381111561066d5761066d611664565b145b9392505050565b61067e61127e565b33600090815260086020526040812090600482015460ff1660038111156106a7576106a7611664565b146106c5576040516320e8cb6760e21b815260040160405180910390fd5b6002548210156106e857604051630103be3b60e21b815260040160405180910390fd5b6004546005541061070c576040516376bca46b60e11b815260040160405180910390fd5b6107416001600160a01b037f00000000000000000000000000000000000000000000000000000000000000001633308561133a565b818155600060018083018290554260028401556003830182905560048301805460ff191682179055600580549192909161077c9084906117a7565b92505081905550816006600082825461079591906117a7565b90915550503360009081526009602052604090205460ff1661080e57336000818152600960205260408120805460ff19166001908117909155600a805491820181559091527fc65a7bb8d6351c1cf70c95a316cc6a92839c986682d98bc35f958f4883f9d2a80180546001600160a01b03191690911790555b600281015460405133917f4fedf9289a156b214915bd5c2db58d3ee16acc185e80df66ee404e4573c821e19161084c91868252602082015260400190565b60405180910390a25061085e60018055565b50565b610869611224565b61061d6000611378565b6040516370a0823160e01b815230600482015260009081906001600160a01b037f000000000000000000000000000000000000000000000000000000000000000016906370a0823190602401602060405180830381865afa1580156108dc573d6000803e3d6000fd5b505050506040513d601f19601f8201168201806040525081019061090091906117d3565b9050600060075460065461091491906117a7565b90508082116109265760009250505090565b61093081836117c0565b9250505090565b3360009081526008602052604090206001600482015460ff16600381111561096157610961611664565b1461097f576040516353670afb60e11b815260040160405180910390fd5b60048101805460ff1916600217905560035461099b90426117a7565b6003820181905560405190815233907f239de5bbc96d8d3958406ea8afcce5ea046fbc26e65e14b9b03e33288362ec939060200160405180910390a250565b6109e2611224565b80600003610a035760405163c52a9bd360e01b815260040160405180910390fd5b60028190556040518181527f47ab46f2c8d4258304a2f5551c1cbdb6981be49631365d1ba7191288a73f39ef906020015b60405180910390a150565b610a4761127e565b80600003610a6857604051630103be3b60e21b815260040160405180910390fd5b610a9d6001600160a01b037f00000000000000000000000000000000000000000000000000000000000000001633308461133a565b60405181815233907fd53214ca07be5520e229c395f05a3e5c0697ec6279184ffbe2758d304fd322cc9060200160405180910390a261085e60018055565b610ae3611224565b801580610af1575060055481105b15610b0f5760405163c52a9bd360e01b815260040160405180910390fd5b60048190556040518181527fa8cea9a3fea31aec90e33ebd66f21df3b5fad9bfe3351176bb2bb30ddd0786e390602001610a34565b610b4c61127e565b3360009081526008602052604090206002600482015460ff166003811115610b7657610b76611664565b14610b94576040516306a0786d60e51b815260040160405180910390fd5b8060030154421015610bb957604051630e207aad60e01b815260040160405180910390fd5b8054600182015460068054839190600090610bd59084906117c0565b92505081905550600160056000828254610bef91906117c0565b90915550508015610c12578060076000828254610c0c91906117c0565b90915550505b60008084556001840181905560028401819055600384015560048301805460ff19169055610c7533610c4483856117a7565b6001600160a01b037f00000000000000000000000000000000000000000000000000000000000000001691906112d7565b604080518381526020810183905233917f6103e24bbc06607254dd8d255c88cd7b6a5c2419b6a9a09eb65fc3738261cb25910160405180910390a250505061061d60018055565b610cc4611224565b610ccc61127e565b6001600160a01b0382161580610ce0575080155b15610cfe57604051630103be3b60e21b815260040160405180910390fd5b6000610d08610873565b905081811015610d2b57604051630d75c42960e31b815260040160405180910390fd5b610d5f6001600160a01b037f00000000000000000000000000000000000000000000000000000000000000001684846112d7565b50610d6960018055565b5050565b610d75611224565b60038190556040518181527fcc67306c5d19f79a73208a1270ca19eb367b4bd5258eac096e974365d18e432c90602001610a34565b610db261127e565b80600003610dd357604051630103be3b60e21b815260040160405180910390fd5b3360009081526008602052604090206001600482015460ff166003811115610dfd57610dfd611664565b14610e1b576040516353670afb60e11b815260040160405180910390fd5b610e506001600160a01b037f00000000000000000000000000000000000000000000000000000000000000001633308561133a565b81816000016000828254610e6491906117a7565b925050819055508160066000828254610e7d91906117a7565b9091555050805460405133917fac92c7d285d0079961f094ffae48e3a77cd67ad29746583f9dc02f1d6cf1d8e19161084c91868252602082015260400190565b610ec5611224565b6001600160a01b038116610f2f5760405162461bcd60e51b815260206004820152602660248201527f4f776e61626c653a206e6577206f776e657220697320746865207a65726f206160448201526564647265737360d01b60648201526084015b60405180910390fd5b61085e81611378565b6060600a805480602002602001604051908101604052809291908181526020018280548015610f9057602002820191906000526020600020905b81546001600160a01b03168152600190910190602001808311610f72575b5050505050905090565b3360009081526008602052604090206002600482015460ff166003811115610fc457610fc4611664565b14610fe2576040516306a0786d60e51b815260040160405180910390fd5b60048101805460ff1916600117905560006003820181905560405133917f46550599fa62c9f16dc0cdc42ce629a5e19912d3f2596a092c8e7701b7200da891a250565b61102d611224565b61103561127e565b8160000361105657604051630103be3b60e21b815260040160405180910390fd5b6001600160a01b03831660009081526008602052604090206001600482015460ff16600381111561108957611089611664565b141580156110b057506002600482015460ff1660038111156110ad576110ad611664565b14155b156110ce576040516359762cc560e11b815260040160405180910390fd5b805460009084116110df57836110e2565b81545b9050808260000160008282546110f891906117c0565b92505081905550806006600082825461111191906117c0565b909155505081546000036111845760016005600082825461113291906117c0565b90915550506001820154156111645781600101546007600082825461115791906117c0565b9091555050600060018301555b60048201805460ff19166003908117909155600090830181905560028301555b6001600160a01b038316156111c7576111c76001600160a01b037f00000000000000000000000000000000000000000000000000000000000000001684836112d7565b826001600160a01b0316856001600160a01b03167fa2ce4664df80a3d0d2f08c7d38b7a94100ccccf1882900a343067bb266ed63c48360405161120c91815260200190565b60405180910390a3505061121f60018055565b505050565b6000546001600160a01b0316331461061d5760405162461bcd60e51b815260206004820181905260248201527f4f776e61626c653a2063616c6c6572206973206e6f7420746865206f776e65726044820152606401610f26565b6002600154036112d05760405162461bcd60e51b815260206004820152601f60248201527f5265656e7472616e637947756172643a207265656e7472616e742063616c6c006044820152606401610f26565b6002600155565b6040516001600160a01b03831660248201526044810182905261121f90849063a9059cbb60e01b906064015b60408051601f198184030181529190526020810180516001600160e01b03166001600160e01b0319909316929092179091526113c8565b6040516001600160a01b03808516602483015283166044820152606481018290526113729085906323b872dd60e01b90608401611303565b50505050565b600080546001600160a01b038381166001600160a01b0319831681178455604051919092169283917f8be0079c531659141344cd1fd0a4f28419497f9722a3daafe3b4186f6b6457e09190a35050565b600061141d826040518060400160405280602081526020017f5361666545524332303a206c6f772d6c6576656c2063616c6c206661696c6564815250856001600160a01b031661149d9092919063ffffffff16565b905080516000148061143e57508080602001905181019061143e91906117ec565b61121f5760405162461bcd60e51b815260206004820152602a60248201527f5361666545524332303a204552433230206f7065726174696f6e20646964206e6044820152691bdd081cdd58d8d9595960b21b6064820152608401610f26565b60606114ac84846000856114b4565b949350505050565b6060824710156115155760405162461bcd60e51b815260206004820152602660248201527f416464726573733a20696e73756666696369656e742062616c616e636520666f6044820152651c8818d85b1b60d21b6064820152608401610f26565b600080866001600160a01b031685876040516115319190611832565b60006040518083038185875af1925050503d806000811461156e576040519150601f19603f3d011682016040523d82523d6000602084013e611573565b606091505b50915091506115848783838761158f565b979650505050505050565b606083156115fe5782516000036115f7576001600160a01b0385163b6115f75760405162461bcd60e51b815260206004820152601d60248201527f416464726573733a2063616c6c20746f206e6f6e2d636f6e74726163740000006044820152606401610f26565b50816114ac565b6114ac83838151156116135781518083602001fd5b8060405162461bcd60e51b8152600401610f26919061184e565b80356001600160a01b038116811461164457600080fd5b919050565b60006020828403121561165b57600080fd5b61066f8261162d565b634e487b7160e01b600052602160045260246000fd5b600060a082019050868252856020830152846040830152836060830152600483106116b557634e487b7160e01b600052602160045260246000fd5b8260808301529695505050505050565b600080604083850312156116d857600080fd5b6116e18361162d565b946020939093013593505050565b60006020828403121561170157600080fd5b5035919050565b6020808252825182820181905260009190848201906040850190845b818110156117495783516001600160a01b031683529284019291840191600101611724565b50909695505050505050565b60008060006060848603121561176a57600080fd5b6117738461162d565b9250602084013591506117886040850161162d565b90509250925092565b634e487b7160e01b600052601160045260246000fd5b808201808211156117ba576117ba611791565b92915050565b818103818111156117ba576117ba611791565b6000602082840312156117e557600080fd5b5051919050565b6000602082840312156117fe57600080fd5b8151801515811461066f57600080fd5b60005b83811015611829578181015183820152602001611811565b50506000910152565b6000825161184481846020870161180e565b9190910192915050565b602081526000825180602084015261186d81604085016020870161180e565b601f01601f1916919091016040019291505056fea26469706673582212208a973483b81316369c086bf75a14fce6588383b67588bdaf4e778aae413bad8364736f6c63430008130033",
  "linkReferences": {},
  "deployedLinkReferences": {}
}