{
  "_format": "hh-sol-artifact-1",
  "contractName": "NASACoin",
  "sourceName": "contracts/NASACoin.sol",
  "abi": [
    {
      "inputs": [],
      "stateMutability": "nonpayable",
      "type": "constructor"
    },
    {
      "anonymous": false,
      "inputs": [
        {
          "indexed": true,
          "internalType": "address",
          "name": "owner",
          "type": "address"
        },
        {
          "indexed": true,
          "internalType": "address",
          "name": "spender",
          "type": "address"
        },
        {
          "indexed": false,
          "internalType": "uint256",
          "name": "value",
          "type": "uint256"
        }
      ],
      "name": "Approval",
      "type": "event"
    },
    {
      "anonymous": false,
      "inputs": [
        {
          "indexed": false,
          "internalType": "uint256",
          "name": "oldDifficulty",
          "type": "uint256"
        },
        {
          "indexed": false,
          "internalType": "uint256",
          "name": "newDifficulty",
          "type": "uint256"
        }
      ],
      "name": "DifficultyAdjusted",
      "type": "event"
    },
    {
      "anonymous": false,
      "inputs": [
        {
          "indexed": true,
          "internalType": "address",
          "name": "previousOwner",
          "type": "address"
        },
        {
          "indexed": true,
          "internalType": "address",
          "name": "newOwner",
          "type": "address"
        }
      ],
      "name": "OwnershipTransferred",
      "type": "event"
    },
    {
      "anonymous": false,
      "inputs": [
        {
          "indexed": false,
          "internalType": "address",
          "name": "account",
          "type": "address"
        }
      ],
      "name": "Paused",
      "type": "event"
    },
    {
      "anonymous": false,
      "inputs": [
        {
          "indexed": true,
          "internalType": "address",
          "name": "recipient",
          "type": "address"
        },
        {
          "indexed": false,
          "internalType": "uint256",
          "name": "amount",
          "type": "uint256"
        }
      ],
      "name": "RewardsDistributed",
      "type": "event"
    },
    {
      "anonymous": false,
      "inputs": [
        {
          "indexed": true,
          "internalType": "address",
          "name": "miner",
          "type": "address"
        },
        {
          "indexed": false,
          "internalType": "uint256",
          "name": "amount",
          "type": "uint256"
        },
        {
          "indexed": false,
          "internalType": "uint256",
          "name": "difficulty",
          "type": "uint256"
        }
      ],
      "name": "TokensMined",
      "type": "event"
    },
    {
      "anonymous": false,
      "inputs": [
        {
          "indexed": true,
          "internalType": "address",
          "name": "staker",
          "type": "address"
        },
        {
          "indexed": false,
          "internalType": "uint256",
          "name": "amount",
          "type": "uint256"
        }
      ],
      "name": "TokensStaked",
      "type": "event"
    },
    {
      "anonymous": false,
      "inputs": [
        {
          "indexed": true,
          "internalType": "address",
          "name": "staker",
          "type": "address"
        },
        {
          "indexed": false,
          "internalType": "uint256",
          "name": "amount",
          "type": "uint256"
        },
        {
          "indexed": false,
          "internalType": "uint256",
          "name": "rewards",
          "type": "uint256"
        }
      ],
      "name": "TokensUnstaked",
      "type": "event"
    },
    {
      "anonymous": false,
      "inputs": [
        {
          "indexed": true,
          "internalType": "address",
          "name": "from",
          "type": "address"
        },
        {
          "indexed": true,
          "internalType": "address",
          "name": "to",
          "type": "address"
        },
        {
          "indexed": false,
          "internalType": "uint256",
          "name": "value",
          "type": "uint256"
        }
      ],
      "name": "Transfer",
      "type": "event"
    },
    {
      "anonymous": false,
      "inputs": [
        {
          "indexed": false,
          "internalType": "address",
          "name": "account",
          "type": "address"
        }
      ],
      "name": "Unpaused",
      "type": "event"
    },
    {
      "inputs": [],
      "name": "BLOCK_REWARD",
      "outputs": [
        {
          "internalType": "uint256",
          "name": "",
          "type": "uint256"
        }
      ],
      "stateMutability": "view",
      "type": "function"
    },
    {
      "inputs": [],
      "name": "INITIAL_SUPPLY",
      "outputs": [
        {
          "internalType": "uint256",
          "name": "",
          "type": "uint256"
        }
      ],
      "stateMutability": "view",
      "type": "function"
    },
    {
      "inputs": [],
      "name": "MAX_SUPPLY",
      "outputs": [
        {
          "internalType": "uint256",
          "name": "",
          "type": "uint256"
        }
      ],
      "stateMutability": "view",
      "type": "function"
    },
    {
      "inputs": [
        {
          "internalType": "address",
          "name": "owner",
          "type": "address"
        },
        {
          "internalType": "address",
          "name": "spender",
          "type": "address"
        }
      ],
      "name": "allowance",
      "outputs": [
        {
          "internalType": "uint256",
          "name": "",
          "type": "uint256"
        }
      ],
      "stateMutability": "view",
      "type": "function"
    },
    {
      "inputs": [
        {
          "internalType": "address",
          "name": "spender",
          "type": "address"
        },
        {
          "internalType": "uint256",
          "name": "amount",
          "type": "uint256"
        }
      ],
      "name": "approve",
      "outputs": [
        {
          "internalType": "bool",
          "name": "",
          "type": "bool"
        }
      ],
      "stateMutability": "nonpayable",
      "type": "function"
    },
    {
      "inputs": [
        {
          "internalType": "address",
          "name": "account",
          "type": "address"
        }
      ],
      "name": "balanceOf",
      "outputs": [
        {
          "internalType": "uint256",
          "name": "",
          "type": "uint256"
        }
      ],
      "stateMutability": "view",
      "type": "function"
    },
    {
      "inputs": [
        {
          "internalType": "uint256",
          "name": "amount",
          "type": "uint256"
        }
      ],
      "name": "burn",
      "outputs": [],
      "stateMutability": "nonpayable",
      "type": "function"
    },
    {
      "inputs": [
        {
          "internalType": "address",
          "name": "account",
          "type": "address"
        },
        {
          "internalType": "uint256",
          "name": "amount",
          "type": "uint256"
        }
      ],
      "name": "burnFrom",
      "outputs": [],
      "stateMutability": "nonpayable",
      "type": "function"
    },
    {
      "inputs": [],
      "name": "claimRewards",
      "outputs": [],
      "stateMutability": "nonpayable",
      "type": "function"
    },
    {
      "inputs": [],
      "name": "decimals",
      "outputs": [
        {
          "internalType": "uint8",
          "name": "",
          "type": "uint8"
        }
      ],
      "stateMutability": "view",
      "type": "function"
    },
    {
      "inputs": [
        {
          "internalType": "address",
          "name": "spender",
          "type": "address"
        },
        {
          "internalType": "uint256",
          "name": "subtractedValue",
          "type": "uint256"
        }
      ],
      "name": "decreaseAllowance",
      "outputs": [
        {
          "internalType": "bool",
          "name": "",
          "type": "bool"
        }
      ],
      "stateMutability": "nonpayable",
      "type": "function"
    },
    {
      "inputs": [
        {
          "internalType": "address",
          "name": "token",
          "type": "address"
        },
        {
          "internalType": "uint256",
          "name": "amount",
          "type": "uint256"
        }
      ],
      "name": "emergencyWithdraw",
      "outputs": [],
      "stateMutability": "nonpayable",
      "type": "function"
    },
    {
      "inputs": [
        {
          "internalType": "address",
          "name": "account",
          "type": "address"
        }
      ],
      "name": "getMiningInfo",
      "outputs": [
        {
          "internalType": "uint256",
          "name": "lastMining",
          "type": "uint256"
        },
        {
          "internalType": "uint256",
          "name": "nextMiningTime",
          "type": "uint256"
        },
        {
          "internalType": "uint256",
          "name": "currentDifficulty",
          "type": "uint256"
        },
        {
          "internalType": "bool",
          "name": "canMine",
          "type": "bool"
        }
      ],
      "stateMutability": "view",
      "type": "function"
    },
    {
      "inputs": [
        {
          "internalType": "address",
          "name": "account",
          "type": "address"
        }
      ],
      "name": "getStakingInfo",
      "outputs": [
        {
          "internalType": "uint256",
          "name": "stakedAmount",
          "type": "uint256"
        },
        {
          "internalType": "uint256",
          "name": "stakingTime",
          "type": "uint256"
        },
        {
          "internalType": "uint256",
          "name": "pendingRewards",
          "type": "uint256"
        },
        {
          "internalType": "uint256",
          "name": "totalRewards",
          "type": "uint256"
        }
      ],
      "stateMutability": "view",
      "type": "function"
    },
    {
      "inputs": [
        {
          "internalType": "address",
          "name": "spender",
          "type": "address"
        },
        {
          "internalType": "uint256",
          "name": "addedValue",
          "type": "uint256"
        }
      ],
      "name": "increaseAllowance",
      "outputs": [
        {
          "internalType": "bool",
          "name": "",
          "type": "bool"
        }
      ],
      "stateMutability": "nonpayable",
      "type": "function"
    },
    {
      "inputs": [
        {
          "internalType": "address",
          "name": "",
          "type": "address"
        }
      ],
      "name": "lastMiningTime",
      "outputs": [
        {
          "internalType": "uint256",
          "name": "",
          "type": "uint256"
        }
      ],
      "stateMutability": "view",
      "type": "function"
    },
    {
      "inputs": [
        {
          "internalType": "uint256",
          "name": "nonce",
          "type": "uint256"
        }
      ],
      "name": "mine",
      "outputs": [],
      "stateMutability": "nonpayable",
      "type": "function"
    },
    {
      "inputs": [],
      "name": "miningCooldown",
      "outputs": [
        {
          "internalType": "uint256",
          "name": "",
          "type": "uint256"
        }
      ],
      "stateMutability": "view",
      "type": "function"
    },
    {
      "inputs": [],
      "name": "miningDifficulty",
      "outputs": [
        {
          "internalType": "uint256",
          "name": "",
          "type": "uint256"
        }
      ],
      "stateMutability": "view",
      "type": "function"
    },
    {
      "inputs": [],
      "name": "name",
      "outputs": [
        {
          "internalType": "string",
          "name": "",
          "type": "string"
        }
      ],
      "stateMutability": "view",
      "type": "function"
    },
    {
      "inputs": [],
      "name": "owner",
      "outputs": [
        {
          "internalType": "address",
          "name": "",
          "type": "address"
        }
      ],
      "stateMutability": "view",
      "type": "function"
    },
    {
      "inputs": [],
      "name": "pause",
      "outputs": [],
      "stateMutability": "nonpayable",
      "type": "function"
    },
    {
      "inputs": [],
      "name": "paused",
      "outputs": [
        {
          "internalType": "bool",
          "name": "",
          "type": "bool"
        }
      ],
      "stateMutability": "view",
      "type": "function"
    },
    {
      "inputs": [],
      "name": "renounceOwnership",
      "outputs": [],
      "stateMutability": "nonpayable",
      "type": "function"
    },
    {
      "inputs": [
        {
          "internalType": "uint256",
          "name": "_cooldown",
          "type": "uint256"
        }
      ],
      "name": "setMiningCooldown",
      "outputs": [],
      "stateMutability": "nonpayable",
      "type": "function"
    },
    {
      "inputs": [
        {
          "internalType": "uint256",
          "name": "_apy",
          "type": "uint256"
        }
      ],
      "name": "setStakingAPY",
      "outputs": [],
      "stateMutability": "nonpayable",
      "type": "function"
    },
    {
      "inputs": [
        {
          "internalType": "uint256",
          "name": "amount",
          "type": "uint256"
        }
      ],
      "name": "stake",
      "outputs": [],
      "stateMutability": "nonpayable",
      "type": "function"
    },
    {
      "inputs": [],
      "name": "stakingAPY",
      "outputs": [
        {
          "internalType": "uint256",
          "name": "",
          "type": "uint256"
        }
      ],
      "stateMutability": "view",
      "type": "function"
    },
    {
      "inputs": [
        {
          "internalType": "address",
          "name": "",
          "type": "address"
        }
      ],
      "name": "stakingBalance",
      "outputs": [
        {
          "internalType": "uint256",
          "name": "",
          "type": "uint256"
        }
      ],
      "stateMutability": "view",
      "type": "function"
    },
    {
      "inputs": [
        {
          "internalType": "address",
          "name": "",
          "type": "address"
        }
      ],
      "name": "stakingRewards",
      "outputs": [
        {
          "internalType": "uint256",
          "name": "",
          "type": "uint256"
        }
      ],
      "stateMutability": "view",
      "type": "function"
    },
    {
      "inputs": [
        {
          "internalType": "address",
          "name": "",
          "type": "address"
        }
      ],
      "name": "stakingStartTime",
      "outputs": [
        {
          "internalType": "uint256",
          "name": "",
          "type": "uint256"
        }
      ],
      "stateMutability": "view",
      "type": "function"
    },
    {
      "inputs": [],
      "name": "symbol",
      "outputs": [
        {
          "internalType": "string",
          "name": "",
          "type": "string"
        }
      ],
      "stateMutability": "view",
      "type": "function"
    },
    {
      "inputs": [],
      "name": "totalSupply",
      "outputs": [
        {
          "internalType": "uint256",
          "name": "",
          "type": "uint256"
        }
      ],
      "stateMutability": "view",
      "type": "function"
    },
    {
      "inputs": [
        {
          "internalType": "address",
          "name": "to",
          "type": "address"
        },
        {
          "internalType": "uint256",
          "name": "amount",
          "type": "uint256"
        }
      ],
      "name": "transfer",
      "outputs": [
        {
          "internalType": "bool",
          "name": "",
          "type": "bool"
        }
      ],
      "stateMutability": "nonpayable",
      "type": "function"
    },
    {
      "inputs": [
        {
          "internalType": "address",
          "name": "from",
          "type": "address"
        },
        {
          "internalType": "address",
          "name": "to",
          "type": "address"
        },
        {
          "internalType": "uint256",
          "name": "amount",
          "type": "uint256"
        }
      ],
      "name": "transferFrom",
      "outputs": [
        {
          "internalType": "bool",
          "name": "",
          "type": "bool"
        }
      ],
      "stateMutability": "nonpayable",
      "type": "function"
    },
    {
      "inputs": [
        {
          "internalType": "address",
          "name": "newOwner",
          "type": "address"
        }
      ],
      "name": "transferOwnership",
      "outputs": [],
      "stateMutability": "nonpayable",
      "type": "function"
    },
    {
      "inputs": [],
      "name": "unpause",
      "outputs": [],
      "stateMutability": "nonpayable",
      "type": "function"
    },
    {
      "inputs": [
        {
          "internalType": "uint256",
          "name": "amount",
          "type": "uint256"
        }
      ],
      "name": "unstake",
      "outputs": [],
      "stateMutability": "nonpayable",
      "type": "function"
    },
    {
      "stateMutability": "payable",
      "type": "receive"
    }
  ],
  "bytecode": "0x60806040526103e8600b55610258600c556103e8600d553480156200002357600080fd5b50604051806040016040528060098152602001682720a9a09021b7b4b760b91b815250604051806040016040528060088152602001674e4153415045504560c01b815250816003908162000078919062000318565b50600462000087828262000318565b50506005805460ff19169055506200009f33620000cb565b6001600655620000ba3369d3c21bcecceda100000062000125565b620000c533620000cb565b6200040c565b600580546001600160a01b03838116610100818102610100600160a81b031985161790945560405193909204169182907f8be0079c531659141344cd1fd0a4f28419497f9722a3daafe3b4186f6b6457e090600090a35050565b6001600160a01b038216620001815760405162461bcd60e51b815260206004820152601f60248201527f45524332303a206d696e7420746f20746865207a65726f20616464726573730060448201526064015b60405180910390fd5b6200018f60008383620001fa565b8060026000828254620001a39190620003e4565b90915550506001600160a01b038216600081815260208181526040808320805486019055518481527fddf252ad1be2c89b69c2b068fc378daa952ba7f163c4a11628f55a4df523b3ef910160405180910390a35050565b620002078383836200020c565b505050565b60055460ff1615620002075760405162461bcd60e51b815260206004820152602a60248201527f45524332305061757361626c653a20746f6b656e207472616e736665722077686044820152691a5b19481c185d5cd95960b21b606482015260840162000178565b634e487b7160e01b600052604160045260246000fd5b600181811c908216806200029f57607f821691505b602082108103620002c057634e487b7160e01b600052602260045260246000fd5b50919050565b601f8211156200020757600081815260208120601f850160051c81016020861015620002ef5750805b601f850160051c820191505b818110156200031057828155600101620002fb565b505050505050565b81516001600160401b0381111562000334576200033462000274565b6200034c816200034584546200028a565b84620002c6565b602080601f8311600181146200038457600084156200036b5750858301515b600019600386901b1c1916600185901b17855562000310565b600085815260208120601f198616915b82811015620003b55788860151825594840194600190910190840162000394565b5085821015620003d45787850151600019600388901b60f8161c191681555b5050505050600190811b01905550565b808201808211156200040657634e487b7160e01b600052601160045260246000fd5b92915050565b611d5e806200041c6000396000f3fe6080604052600436106102295760003560e01c80635c975abb1161012357806395ccea67116100ab578063aa4704f31161006f578063aa4704f31461068e578063b40b9bb6146106ce578063d1232730146106e4578063dd62ed3e14610711578063f2fde38b1461073157600080fd5b806395ccea67146105f957806395d89b4114610619578063a457c2d71461062e578063a694fc3a1461064e578063a9059cbb1461066e57600080fd5b806379cc6790116100f257806379cc6790146105435780637f05b9ef146105635780638456cb5914610581578063877bc359146105965780638da5cb5b146105c357600080fd5b80635c975abb1461049e5780635d446c41146104b657806370a08231146104f8578063715018a61461052e57600080fd5b806332cb6b0c116101b157806342966c681161017557806342966c68146103e457806345bc78ab14610404578063499d7f96146104315780634d4748981461045e57806357f565f61461047e57600080fd5b806332cb6b0c14610365578063372500ab1461038457806338e38a801461039957806339509351146103af5780633f4ba83a146103cf57600080fd5b806323b872dd116101f857806323b872dd146102c957806325d3f8cb146102e95780632e17de781461030b5780632ff2e9dc1461032b578063313ce5671461034957600080fd5b806306fdde0314610235578063095ea7b3146102605780631531b62a1461029057806318160ddd146102b457600080fd5b3661023057005b600080fd5b34801561024157600080fd5b5061024a610751565b6040516102579190611afd565b60405180910390f35b34801561026c57600080fd5b5061028061027b366004611b67565b6107e3565b6040519015158152602001610257565b34801561029c57600080fd5b506102a6600d5481565b604051908152602001610257565b3480156102c057600080fd5b506002546102a6565b3480156102d557600080fd5b506102806102e4366004611b91565b6107fd565b3480156102f557600080fd5b50610309610304366004611bcd565b610821565b005b34801561031757600080fd5b50610309610326366004611bcd565b610874565b34801561033757600080fd5b506102a669d3c21bcecceda100000081565b34801561035557600080fd5b5060405160128152602001610257565b34801561037157600080fd5b506102a66a0422ca8b0a00a42500000081565b34801561039057600080fd5b506103096109bb565b3480156103a557600080fd5b506102a6600c5481565b3480156103bb57600080fd5b506102806103ca366004611b67565b610a2a565b3480156103db57600080fd5b50610309610a4c565b3480156103f057600080fd5b506103096103ff366004611bcd565b610a5c565b34801561041057600080fd5b506102a661041f366004611be6565b60086020526000908152604090205481565b34801561043d57600080fd5b506102a661044c366004611be6565b600a6020526000908152604090205481565b34801561046a57600080fd5b50610309610479366004611bcd565b610a66565b34801561048a57600080fd5b50610309610499366004611bcd565b610ca9565b3480156104aa57600080fd5b5060055460ff16610280565b3480156104c257600080fd5b506104d66104d1366004611be6565b610cb6565b6040805194855260208501939093529183015215156060820152608001610257565b34801561050457600080fd5b506102a6610513366004611be6565b6001600160a01b031660009081526020819052604090205490565b34801561053a57600080fd5b50610309610d2b565b34801561054f57600080fd5b5061030961055e366004611b67565b610d3d565b34801561056f57600080fd5b506102a66969e10de76676d080000081565b34801561058d57600080fd5b50610309610d56565b3480156105a257600080fd5b506102a66105b1366004611be6565b60076020526000908152604090205481565b3480156105cf57600080fd5b5060055461010090046001600160a01b03166040516001600160a01b039091168152602001610257565b34801561060557600080fd5b50610309610614366004611b67565b610d66565b34801561062557600080fd5b5061024a610e62565b34801561063a57600080fd5b50610280610649366004611b67565b610e71565b34801561065a57600080fd5b50610309610669366004611bcd565b610eec565b34801561067a57600080fd5b50610280610689366004611b67565b611046565b34801561069a57600080fd5b506106ae6106a9366004611be6565b611054565b604080519485526020850193909352918301526060820152608001610257565b3480156106da57600080fd5b506102a6600b5481565b3480156106f057600080fd5b506102a66106ff366004611be6565b60096020526000908152604090205481565b34801561071d57600080fd5b506102a661072c366004611c08565b6110cc565b34801561073d57600080fd5b5061030961074c366004611be6565b6110f7565b60606003805461076090611c3b565b80601f016020809104026020016040519081016040528092919081815260200182805461078c90611c3b565b80156107d95780601f106107ae576101008083540402835291602001916107d9565b820191906000526020600020905b8154815290600101906020018083116107bc57829003601f168201915b5050505050905090565b6000336107f181858561116d565b60019150505b92915050565b60003361080b858285611291565b61081685858561130b565b506001949350505050565b6108296114ba565b61138881111561086f5760405162461bcd60e51b815260206004820152600c60248201526b082a0b240e8dede40d0d2ced60a31b60448201526064015b60405180910390fd5b600d55565b61087c61151a565b610884611573565b600081116108d45760405162461bcd60e51b815260206004820152601d60248201527f416d6f756e74206d7573742062652067726561746572207468616e20300000006044820152606401610866565b336000908152600860205260409020548111156109335760405162461bcd60e51b815260206004820152601c60248201527f496e73756666696369656e74207374616b696e672062616c616e6365000000006044820152606401610866565b600061093d6115b9565b33600090815260086020526040812080549293508492909190610961908490611c8b565b90915550610972905030338461130b565b604080518381526020810183905233917f6f2d3e000c89d37446b7c0374c0125068ff316d1e3ee302336478a8cd03c2336910160405180910390a2506109b86001600655565b50565b6109c361151a565b6109cb611573565b60006109d56115b9565b905060008111610a1d5760405162461bcd60e51b81526020600482015260136024820152724e6f207265776172647320746f20636c61696d60681b6044820152606401610866565b50610a286001600655565b565b6000336107f1818585610a3d83836110cc565b610a479190611c9e565b61116d565b610a546114ba565b610a286116e2565b6109b83382611734565b610a6e61151a565b610a76611573565b600c5433600090815260076020526040902054610a939190611c9e565b421015610adb5760405162461bcd60e51b81526020600482015260166024820152754d696e696e6720636f6f6c646f776e2061637469766560501b6044820152606401610866565b6a0422ca8b0a00a4250000006969e10de76676d0800000610afb60025490565b610b059190611c9e565b1115610b485760405162461bcd60e51b815260206004820152601260248201527113585e081cdd5c1c1b1e481c995858da195960721b6044820152606401610866565b600042443384604051602001610b899493929190938452602084019290925260601b6bffffffffffffffffffffffff19166040830152605482015260740190565b60408051601f198184030181529190528051602090910120600b549091508190610bb39082611cc7565b15610bf85760405162461bcd60e51b8152602060048201526015602482015274135a5b9a5b99c8185d1d195b5c1d0819985a5b1959605a1b6044820152606401610866565b336000818152600760205260409020429055610c1e906969e10de76676d0800000611872565b610c336969e10de76676d08000006064611cdb565b600254610c409190611cc7565b600003610c4f57610c4f61193d565b600b5460405133917febcfacfd1d501779377b45787c97df6c72c124ff492745f8c8ac92d76050465f91610c95916969e10de76676d08000008252602082015260400190565b60405180910390a250506109b86001600655565b610cb16114ba565b600c55565b6001600160a01b038116600090815260076020526040812054600c5490919081908190610ce39085611c9e565b9250600b549150824210158015610d2257506a0422ca8b0a00a4250000006969e10de76676d0800000610d1560025490565b610d1f9190611c9e565b11155b90509193509193565b610d336114ba565b610a2860006119ac565b610d48823383611291565b610d528282611734565b5050565b610d5e6114ba565b610a28611a06565b610d6e6114ba565b6001600160a01b038216610dca5760055461010090046001600160a01b03166001600160a01b03166108fc829081150290604051600060405180830381858888f19350505050158015610dc5573d6000803e3d6000fd5b505050565b816001600160a01b031663a9059cbb610df16005546001600160a01b036101009091041690565b6040516001600160e01b031960e084901b1681526001600160a01b039091166004820152602481018490526044016020604051808303816000875af1158015610e3e573d6000803e3d6000fd5b505050506040513d601f19601f82011682018060405250810190610dc59190611cf2565b60606004805461076090611c3b565b60003381610e7f82866110cc565b905083811015610edf5760405162461bcd60e51b815260206004820152602560248201527f45524332303a2064656372656173656420616c6c6f77616e63652062656c6f77604482015264207a65726f60d81b6064820152608401610866565b610816828686840361116d565b610ef461151a565b610efc611573565b60008111610f4c5760405162461bcd60e51b815260206004820152601d60248201527f416d6f756e74206d7573742062652067726561746572207468616e20300000006044820152606401610866565b33600090815260208190526040902054811115610fa25760405162461bcd60e51b8152602060048201526014602482015273496e73756666696369656e742062616c616e636560601b6044820152606401610866565b3360009081526008602052604090205415610fc157610fbf6115b9565b505b610fcc33308361130b565b3360009081526008602052604081208054839290610feb908490611c9e565b90915550503360008181526009602052604090819020429055517fb539ca1e5c8d398ddf1c41c30166f33404941683be4683319b57669a93dad4ef906110349084815260200190565b60405180910390a26109b86001600655565b6000336107f181858561130b565b6001600160a01b0381166000908152600860209081526040808320546009835281842054600a9093529083205490929083156110c55760006110968442611c8b565b905064496cebb80081600d54876110ad9190611cdb565b6110b79190611cdb565b6110c19190611d14565b9250505b9193509193565b6001600160a01b03918216600090815260016020908152604080832093909416825291909152205490565b6110ff6114ba565b6001600160a01b0381166111645760405162461bcd60e51b815260206004820152602660248201527f4f776e61626c653a206e6577206f776e657220697320746865207a65726f206160448201526564647265737360d01b6064820152608401610866565b6109b8816119ac565b6001600160a01b0383166111cf5760405162461bcd60e51b8152602060048201526024808201527f45524332303a20617070726f76652066726f6d20746865207a65726f206164646044820152637265737360e01b6064820152608401610866565b6001600160a01b0382166112305760405162461bcd60e51b815260206004820152602260248201527f45524332303a20617070726f766520746f20746865207a65726f206164647265604482015261737360f01b6064820152608401610866565b6001600160a01b0383811660008181526001602090815260408083209487168084529482529182902085905590518481527f8c5be1e5ebec7d5bd14f71427d1e84f3dd0314c0f7b2291e5b200ac8c7c3b925910160405180910390a3505050565b600061129d84846110cc565b9050600019811461130557818110156112f85760405162461bcd60e51b815260206004820152601d60248201527f45524332303a20696e73756666696369656e7420616c6c6f77616e63650000006044820152606401610866565b611305848484840361116d565b50505050565b6001600160a01b03831661136f5760405162461bcd60e51b815260206004820152602560248201527f45524332303a207472616e736665722066726f6d20746865207a65726f206164604482015264647265737360d81b6064820152608401610866565b6001600160a01b0382166113d15760405162461bcd60e51b815260206004820152602360248201527f45524332303a207472616e7366657220746f20746865207a65726f206164647260448201526265737360e81b6064820152608401610866565b6113dc838383611a43565b6001600160a01b038316600090815260208190526040902054818110156114545760405162461bcd60e51b815260206004820152602660248201527f45524332303a207472616e7366657220616d6f756e7420657863656564732062604482015265616c616e636560d01b6064820152608401610866565b6001600160a01b03848116600081815260208181526040808320878703905593871680835291849020805487019055925185815290927fddf252ad1be2c89b69c2b068fc378daa952ba7f163c4a11628f55a4df523b3ef910160405180910390a3611305565b6005546001600160a01b03610100909104163314610a285760405162461bcd60e51b815260206004820181905260248201527f4f776e61626c653a2063616c6c6572206973206e6f7420746865206f776e65726044820152606401610866565b60026006540361156c5760405162461bcd60e51b815260206004820152601f60248201527f5265656e7472616e637947756172643a207265656e7472616e742063616c6c006044820152606401610866565b6002600655565b60055460ff1615610a285760405162461bcd60e51b815260206004820152601060248201526f14185d5cd8589b194e881c185d5cd95960821b6044820152606401610866565b3360009081526008602052604081205481036115d55750600090565b336000908152600960205260408120546115ef9042611c8b565b600d54336000908152600860205260408120549293509164496cebb8009184916116199190611cdb565b6116239190611cdb565b61162d9190611d14565b905060008111801561165d57506a0422ca8b0a00a4250000008161165060025490565b61165a9190611c9e565b11155b156107f75761166c3382611872565b336000908152600a60205260408120805483929061168b908490611c9e565b90915550503360008181526009602052604090819020429055517fdf29796aad820e4bb192f3a8d631b76519bcd2cbe77cc85af20e9df53cece086906116d49084815260200190565b60405180910390a292915050565b6116ea611a4e565b6005805460ff191690557f5db9ee0a495bf2e6ff9c91a7834c1ba4fdd244a5e8aa4e537bd38aeae4b073aa335b6040516001600160a01b03909116815260200160405180910390a1565b6001600160a01b0382166117945760405162461bcd60e51b815260206004820152602160248201527f45524332303a206275726e2066726f6d20746865207a65726f206164647265736044820152607360f81b6064820152608401610866565b6117a082600083611a43565b6001600160a01b038216600090815260208190526040902054818110156118145760405162461bcd60e51b815260206004820152602260248201527f45524332303a206275726e20616d6f756e7420657863656564732062616c616e604482015261636560f01b6064820152608401610866565b6001600160a01b0383166000818152602081815260408083208686039055600280548790039055518581529192917fddf252ad1be2c89b69c2b068fc378daa952ba7f163c4a11628f55a4df523b3ef910160405180910390a3505050565b6001600160a01b0382166118c85760405162461bcd60e51b815260206004820152601f60248201527f45524332303a206d696e7420746f20746865207a65726f2061646472657373006044820152606401610866565b6118d460008383611a43565b80600260008282546118e69190611c9e565b90915550506001600160a01b038216600081815260208181526040808320805486019055518481527fddf252ad1be2c89b69c2b068fc378daa952ba7f163c4a11628f55a4df523b3ef910160405180910390a35050565b600b54606461194d82606e611cdb565b6119579190611d14565b600b819055612710101561196c57612710600b555b600b546040805183815260208101929092527f331f509128e440b60aa7d2a425cce97af680974ed26d34cf23d939e3d5e8a94b910160405180910390a150565b600580546001600160a01b03838116610100818102610100600160a81b031985161790945560405193909204169182907f8be0079c531659141344cd1fd0a4f28419497f9722a3daafe3b4186f6b6457e090600090a35050565b611a0e611573565b6005805460ff191660011790557f62e78cea01bee320cd4e420270b5ea74000d11b0c9f74754ebdbfc544b05a2586117173390565b610dc5838383611a97565b60055460ff16610a285760405162461bcd60e51b815260206004820152601460248201527314185d5cd8589b194e881b9bdd081c185d5cd95960621b6044820152606401610866565b60055460ff1615610dc55760405162461bcd60e51b815260206004820152602a60248201527f45524332305061757361626c653a20746f6b656e207472616e736665722077686044820152691a5b19481c185d5cd95960b21b6064820152608401610866565b600060208083528351808285015260005b81811015611b2a57858101830151858201604001528201611b0e565b506000604082860101526040601f19601f8301168501019250505092915050565b80356001600160a01b0381168114611b6257600080fd5b919050565b60008060408385031215611b7a57600080fd5b611b8383611b4b565b946020939093013593505050565b600080600060608486031215611ba657600080fd5b611baf84611b4b565b9250611bbd60208501611b4b565b9150604084013590509250925092565b600060208284031215611bdf57600080fd5b5035919050565b600060208284031215611bf857600080fd5b611c0182611b4b565b9392505050565b60008060408385031215611c1b57600080fd5b611c2483611b4b565b9150611c3260208401611b4b565b90509250929050565b600181811c90821680611c4f57607f821691505b602082108103611c6f57634e487b7160e01b600052602260045260246000fd5b50919050565b634e487b7160e01b600052601160045260246000fd5b818103818111156107f7576107f7611c75565b808201808211156107f7576107f7611c75565b634e487b7160e01b600052601260045260246000fd5b600082611cd657611cd6611cb1565b500690565b80820281158282048414176107f7576107f7611c75565b600060208284031215611d0457600080fd5b81518015158114611c0157600080fd5b600082611d2357611d23611cb1565b50049056fea264697066735822122011e3cfa288196e6a68390cebc4cdca6c623f4bcdb764eabb64817dedd53ae65864736f6c63430008130033",
  "linkReferences": {},
  "deployedLinkReferences": {}
}